{
  "contractName": "Exchange",
  "abi": [
    {
      "inputs": [
        {
          "internalType": "uint256",
          "name": "_depositAmount",
          "type": "uint256"
        }
      ],
      "stateMutability": "nonpayable",
      "type": "constructor"
    },
    {
      "anonymous": false,
      "inputs": [
        {
          "indexed": false,
          "internalType": "uint256",
          "name": "id",
          "type": "uint256"
        },
        {
          "indexed": false,
          "internalType": "address",
          "name": "token",
          "type": "address"
        },
        {
          "indexed": false,
          "internalType": "address",
          "name": "maker",
          "type": "address"
        },
        {
          "indexed": false,
          "internalType": "address",
          "name": "taker",
          "type": "address"
        },
        {
          "indexed": false,
          "internalType": "uint256",
          "name": "amountMaker",
          "type": "uint256"
        },
        {
          "indexed": false,
          "internalType": "uint256",
          "name": "amountTaker",
          "type": "uint256"
        },
        {
          "indexed": false,
          "internalType": "uint256",
          "name": "depositAmount",
          "type": "uint256"
        },
        {
          "indexed": false,
          "internalType": "bool",
          "name": "accepted",
          "type": "bool"
        },
        {
          "indexed": false,
          "internalType": "address",
          "name": "winnerMaker",
          "type": "address"
        },
        {
          "indexed": false,
          "internalType": "address",
          "name": "winnerTaker",
          "type": "address"
        },
        {
          "indexed": false,
          "internalType": "uint256",
          "name": "timestamp",
          "type": "uint256"
        }
      ],
      "name": "BetAccepted",
      "type": "event"
    },
    {
      "anonymous": false,
      "inputs": [
        {
          "indexed": false,
          "internalType": "uint256",
          "name": "id",
          "type": "uint256"
        },
        {
          "indexed": false,
          "internalType": "address",
          "name": "token",
          "type": "address"
        },
        {
          "indexed": false,
          "internalType": "address",
          "name": "maker",
          "type": "address"
        },
        {
          "indexed": false,
          "internalType": "address",
          "name": "taker",
          "type": "address"
        },
        {
          "indexed": false,
          "internalType": "uint256",
          "name": "amountMaker",
          "type": "uint256"
        },
        {
          "indexed": false,
          "internalType": "uint256",
          "name": "amountTaker",
          "type": "uint256"
        },
        {
          "indexed": false,
          "internalType": "uint256",
          "name": "depositAmount",
          "type": "uint256"
        },
        {
          "indexed": false,
          "internalType": "bool",
          "name": "accepted",
          "type": "bool"
        },
        {
          "indexed": false,
          "internalType": "address",
          "name": "winnerMaker",
          "type": "address"
        },
        {
          "indexed": false,
          "internalType": "address",
          "name": "winnerTaker",
          "type": "address"
        },
        {
          "indexed": false,
          "internalType": "uint256",
          "name": "timestamp",
          "type": "uint256"
        }
      ],
      "name": "BetCancelled",
      "type": "event"
    },
    {
      "anonymous": false,
      "inputs": [
        {
          "indexed": false,
          "internalType": "uint256",
          "name": "id",
          "type": "uint256"
        },
        {
          "indexed": false,
          "internalType": "address",
          "name": "token",
          "type": "address"
        },
        {
          "indexed": false,
          "internalType": "address",
          "name": "maker",
          "type": "address"
        },
        {
          "indexed": false,
          "internalType": "address",
          "name": "taker",
          "type": "address"
        },
        {
          "indexed": false,
          "internalType": "uint256",
          "name": "amountMaker",
          "type": "uint256"
        },
        {
          "indexed": false,
          "internalType": "uint256",
          "name": "amountTaker",
          "type": "uint256"
        },
        {
          "indexed": false,
          "internalType": "uint256",
          "name": "depositAmount",
          "type": "uint256"
        },
        {
          "indexed": false,
          "internalType": "bool",
          "name": "accepted",
          "type": "bool"
        },
        {
          "indexed": false,
          "internalType": "address",
          "name": "winnerMaker",
          "type": "address"
        },
        {
          "indexed": false,
          "internalType": "address",
          "name": "winnerTaker",
          "type": "address"
        },
        {
          "indexed": false,
          "internalType": "uint256",
          "name": "timestamp",
          "type": "uint256"
        }
      ],
      "name": "BetClosed",
      "type": "event"
    },
    {
      "anonymous": false,
      "inputs": [
        {
          "indexed": false,
          "internalType": "uint256",
          "name": "id",
          "type": "uint256"
        },
        {
          "indexed": false,
          "internalType": "address",
          "name": "token",
          "type": "address"
        },
        {
          "indexed": false,
          "internalType": "address",
          "name": "maker",
          "type": "address"
        },
        {
          "indexed": false,
          "internalType": "address",
          "name": "taker",
          "type": "address"
        },
        {
          "indexed": false,
          "internalType": "uint256",
          "name": "amountMaker",
          "type": "uint256"
        },
        {
          "indexed": false,
          "internalType": "uint256",
          "name": "amountTaker",
          "type": "uint256"
        },
        {
          "indexed": false,
          "internalType": "uint256",
          "name": "depositAmount",
          "type": "uint256"
        },
        {
          "indexed": false,
          "internalType": "bool",
          "name": "accepted",
          "type": "bool"
        },
        {
          "indexed": false,
          "internalType": "address",
          "name": "winnerMaker",
          "type": "address"
        },
        {
          "indexed": false,
          "internalType": "address",
          "name": "winnerTaker",
          "type": "address"
        },
        {
          "indexed": false,
          "internalType": "uint256",
          "name": "timestamp",
          "type": "uint256"
        }
      ],
      "name": "BetCreated",
      "type": "event"
    },
    {
      "anonymous": false,
      "inputs": [
        {
          "indexed": false,
          "internalType": "address",
          "name": "token",
          "type": "address"
        },
        {
          "indexed": false,
          "internalType": "address",
          "name": "user",
          "type": "address"
        },
        {
          "indexed": false,
          "internalType": "uint256",
          "name": "amount",
          "type": "uint256"
        },
        {
          "indexed": false,
          "internalType": "uint256",
          "name": "balance",
          "type": "uint256"
        }
      ],
      "name": "Deposit",
      "type": "event"
    },
    {
      "anonymous": false,
      "inputs": [
        {
          "indexed": true,
          "internalType": "address",
          "name": "previousOwner",
          "type": "address"
        },
        {
          "indexed": true,
          "internalType": "address",
          "name": "newOwner",
          "type": "address"
        }
      ],
      "name": "OwnershipTransferred",
      "type": "event"
    },
    {
      "anonymous": false,
      "inputs": [
        {
          "indexed": false,
          "internalType": "uint256",
          "name": "id",
          "type": "uint256"
        },
        {
          "indexed": false,
          "internalType": "address",
          "name": "token",
          "type": "address"
        },
        {
          "indexed": false,
          "internalType": "address",
          "name": "maker",
          "type": "address"
        },
        {
          "indexed": false,
          "internalType": "address",
          "name": "taker",
          "type": "address"
        },
        {
          "indexed": false,
          "internalType": "uint256",
          "name": "amountMaker",
          "type": "uint256"
        },
        {
          "indexed": false,
          "internalType": "uint256",
          "name": "amountTaker",
          "type": "uint256"
        },
        {
          "indexed": false,
          "internalType": "uint256",
          "name": "depositAmount",
          "type": "uint256"
        },
        {
          "indexed": false,
          "internalType": "bool",
          "name": "accepted",
          "type": "bool"
        },
        {
          "indexed": false,
          "internalType": "address",
          "name": "winnerMaker",
          "type": "address"
        },
        {
          "indexed": false,
          "internalType": "address",
          "name": "winnerTaker",
          "type": "address"
        },
        {
          "indexed": false,
          "internalType": "uint256",
          "name": "timestamp",
          "type": "uint256"
        }
      ],
      "name": "WinnerSubmitted",
      "type": "event"
    },
    {
      "anonymous": false,
      "inputs": [
        {
          "indexed": false,
          "internalType": "address",
          "name": "token",
          "type": "address"
        },
        {
          "indexed": false,
          "internalType": "address",
          "name": "user",
          "type": "address"
        },
        {
          "indexed": false,
          "internalType": "uint256",
          "name": "amount",
          "type": "uint256"
        },
        {
          "indexed": false,
          "internalType": "uint256",
          "name": "balance",
          "type": "uint256"
        }
      ],
      "name": "Withdraw",
      "type": "event"
    },
    {
      "inputs": [
        {
          "internalType": "uint256",
          "name": "",
          "type": "uint256"
        }
      ],
      "name": "accepted",
      "outputs": [
        {
          "internalType": "bool",
          "name": "",
          "type": "bool"
        }
      ],
      "stateMutability": "view",
      "type": "function",
      "constant": true
    },
    {
      "inputs": [
        {
          "internalType": "uint256",
          "name": "",
          "type": "uint256"
        }
      ],
      "name": "bets",
      "outputs": [
        {
          "internalType": "uint256",
          "name": "id",
          "type": "uint256"
        },
        {
          "internalType": "address",
          "name": "token",
          "type": "address"
        },
        {
          "internalType": "address",
          "name": "maker",
          "type": "address"
        },
        {
          "internalType": "address",
          "name": "taker",
          "type": "address"
        },
        {
          "internalType": "uint256",
          "name": "amountMaker",
          "type": "uint256"
        },
        {
          "internalType": "uint256",
          "name": "amountTaker",
          "type": "uint256"
        },
        {
          "internalType": "uint256",
          "name": "amountDeposit",
          "type": "uint256"
        },
        {
          "internalType": "bool",
          "name": "accepted",
          "type": "bool"
        },
        {
          "internalType": "address",
          "name": "winnerMaker",
          "type": "address"
        },
        {
          "internalType": "address",
          "name": "winnerTaker",
          "type": "address"
        },
        {
          "internalType": "uint256",
          "name": "timestamp",
          "type": "uint256"
        }
      ],
      "stateMutability": "view",
      "type": "function",
      "constant": true
    },
    {
      "inputs": [
        {
          "internalType": "uint256",
          "name": "",
          "type": "uint256"
        }
      ],
      "name": "cancelled",
      "outputs": [
        {
          "internalType": "bool",
          "name": "",
          "type": "bool"
        }
      ],
      "stateMutability": "view",
      "type": "function",
      "constant": true
    },
    {
      "inputs": [
        {
          "internalType": "uint256",
          "name": "",
          "type": "uint256"
        }
      ],
      "name": "closed",
      "outputs": [
        {
          "internalType": "bool",
          "name": "",
          "type": "bool"
        }
      ],
      "stateMutability": "view",
      "type": "function",
      "constant": true
    },
    {
      "inputs": [],
      "name": "depositAmount",
      "outputs": [
        {
          "internalType": "uint256",
          "name": "",
          "type": "uint256"
        }
      ],
      "stateMutability": "view",
      "type": "function",
      "constant": true
    },
    {
      "inputs": [],
      "name": "owner",
      "outputs": [
        {
          "internalType": "address",
          "name": "",
          "type": "address"
        }
      ],
      "stateMutability": "view",
      "type": "function",
      "constant": true
    },
    {
      "inputs": [],
      "name": "renounceOwnership",
      "outputs": [],
      "stateMutability": "nonpayable",
      "type": "function"
    },
    {
      "inputs": [
        {
          "internalType": "address",
          "name": "",
          "type": "address"
        },
        {
          "internalType": "address",
          "name": "",
          "type": "address"
        }
      ],
      "name": "tokens",
      "outputs": [
        {
          "internalType": "uint256",
          "name": "",
          "type": "uint256"
        }
      ],
      "stateMutability": "view",
      "type": "function",
      "constant": true
    },
    {
      "inputs": [
        {
          "internalType": "address",
          "name": "newOwner",
          "type": "address"
        }
      ],
      "name": "transferOwnership",
      "outputs": [],
      "stateMutability": "nonpayable",
      "type": "function"
    },
    {
      "inputs": [
        {
          "internalType": "address",
          "name": "_token",
          "type": "address"
        },
        {
          "internalType": "uint256",
          "name": "_amount",
          "type": "uint256"
        }
      ],
      "name": "depositToken",
      "outputs": [],
      "stateMutability": "nonpayable",
      "type": "function"
    },
    {
      "inputs": [
        {
          "internalType": "address",
          "name": "_token",
          "type": "address"
        },
        {
          "internalType": "uint256",
          "name": "_amount",
          "type": "uint256"
        }
      ],
      "name": "withdrawToken",
      "outputs": [],
      "stateMutability": "nonpayable",
      "type": "function"
    },
    {
      "inputs": [
        {
          "internalType": "address",
          "name": "_token",
          "type": "address"
        },
        {
          "internalType": "address",
          "name": "_user",
          "type": "address"
        }
      ],
      "name": "balanceOf",
      "outputs": [
        {
          "internalType": "uint256",
          "name": "_balance",
          "type": "uint256"
        }
      ],
      "stateMutability": "view",
      "type": "function",
      "constant": true
    },
    {
      "inputs": [
        {
          "internalType": "address",
          "name": "_token",
          "type": "address"
        },
        {
          "internalType": "address",
          "name": "_taker",
          "type": "address"
        },
        {
          "internalType": "uint256",
          "name": "_amountMaker",
          "type": "uint256"
        },
        {
          "internalType": "uint256",
          "name": "_amountTaker",
          "type": "uint256"
        }
      ],
      "name": "createBet",
      "outputs": [],
      "stateMutability": "nonpayable",
      "type": "function"
    },
    {
      "inputs": [
        {
          "internalType": "uint256",
          "name": "_id",
          "type": "uint256"
        }
      ],
      "name": "cancelBet",
      "outputs": [],
      "stateMutability": "nonpayable",
      "type": "function"
    },
    {
      "inputs": [
        {
          "internalType": "uint256",
          "name": "_id",
          "type": "uint256"
        }
      ],
      "name": "acceptBet",
      "outputs": [],
      "stateMutability": "nonpayable",
      "type": "function"
    },
    {
      "inputs": [
        {
          "internalType": "uint256",
          "name": "_id",
          "type": "uint256"
        },
        {
          "internalType": "address",
          "name": "_winner",
          "type": "address"
        }
      ],
      "name": "submitWinner",
      "outputs": [],
      "stateMutability": "nonpayable",
      "type": "function"
    }
  ],
  "bytecode": "0x60806040523480156200001157600080fd5b506040516200360e3803806200360e833981810160405281019062000037919062000148565b620000576200004b6200006560201b60201c565b6200006d60201b60201c565b806002819055505062000198565b600033905090565b60008060009054906101000a900473ffffffffffffffffffffffffffffffffffffffff169050816000806101000a81548173ffffffffffffffffffffffffffffffffffffffff021916908373ffffffffffffffffffffffffffffffffffffffff1602179055508173ffffffffffffffffffffffffffffffffffffffff168173ffffffffffffffffffffffffffffffffffffffff167f8be0079c531659141344cd1fd0a4f28419497f9722a3daafe3b4186f6b6457e060405160405180910390a35050565b60008151905062000142816200017e565b92915050565b6000602082840312156200015b57600080fd5b60006200016b8482850162000131565b91505092915050565b6000819050919050565b620001898162000174565b81146200019557600080fd5b50565b61346680620001a86000396000f3fe608060405234801561001057600080fd5b50600436106100ff5760003560e01c8063715018a611610097578063e45310a611610066578063e45310a6146102a0578063f19b8273146102bc578063f2fde38b146102ec578063f7888aec14610308576100ff565b8063715018a61461022c5780638da5cb5b146102365780639e281a9814610254578063e050be5714610270576100ff565b8063419759f5116100d3578063419759f514610192578063508493bc146101b05780635c959b62146101e05780636c0c27e114610210576100ff565b8062f7f2451461010457806322af00fa14610120578063338b5dea1461015a578063357401f514610176575b600080fd5b61011e60048036038101906101199190612c2f565b610338565b005b61013a60048036038101906101359190612c06565b610953565b6040516101519b9a999897969594939291906131d4565b60405180910390f35b610174600480360381019061016f9190612ba1565b610a5a565b005b610190600480360381019061018b9190612c06565b610cf1565b005b61019a61115c565b6040516101a791906131b9565b60405180910390f35b6101ca60048036038101906101c59190612b02565b611162565b6040516101d791906131b9565b60405180910390f35b6101fa60048036038101906101f59190612c06565b611187565b604051610207919061303e565b60405180910390f35b61022a60048036038101906102259190612c06565b6111a7565b005b610234611812565b005b61023e61189a565b60405161024b9190612f7e565b60405180910390f35b61026e60048036038101906102699190612ba1565b6118c3565b005b61028a60048036038101906102859190612c06565b611be1565b604051610297919061303e565b60405180910390f35b6102ba60048036038101906102b59190612b3e565b611c01565b005b6102d660048036038101906102d19190612c06565b612185565b6040516102e3919061303e565b60405180910390f35b61030660048036038101906103019190612ad9565b6121a5565b005b610322600480360381019061031d9190612b02565b61229d565b60405161032f91906131b9565b60405180910390f35b600060046000848152602001908152602001600020905080600001548314610395576040517f08c379a000000000000000000000000000000000000000000000000000000000815260040161038c906130f9565b60405180910390fd5b600015156005600085815260200190815260200160002060009054906101000a900460ff161515146103fc576040517f08c379a00000000000000000000000000000000000000000000000000000000081526004016103f3906130d9565b60405180910390fd5b600115156006600085815260200190815260200160002060009054906101000a900460ff16151514610463576040517f08c379a000000000000000000000000000000000000000000000000000000000815260040161045a906130b9565b60405180910390fd5b600015156007600085815260200190815260200160002060009054906101000a900460ff161515146104ca576040517f08c379a00000000000000000000000000000000000000000000000000000000081526004016104c190613199565b60405180910390fd5b3373ffffffffffffffffffffffffffffffffffffffff168160020160009054906101000a900473ffffffffffffffffffffffffffffffffffffffff1673ffffffffffffffffffffffffffffffffffffffff16148061057757503373ffffffffffffffffffffffffffffffffffffffff168160030160009054906101000a900473ffffffffffffffffffffffffffffffffffffffff1673ffffffffffffffffffffffffffffffffffffffff16145b6105b6576040517f08c379a00000000000000000000000000000000000000000000000000000000081526004016105ad90613139565b60405180910390fd5b8060020160009054906101000a900473ffffffffffffffffffffffffffffffffffffffff1673ffffffffffffffffffffffffffffffffffffffff163373ffffffffffffffffffffffffffffffffffffffff16141561065257818160070160016101000a81548173ffffffffffffffffffffffffffffffffffffffff021916908373ffffffffffffffffffffffffffffffffffffffff1602179055505b8060030160009054906101000a900473ffffffffffffffffffffffffffffffffffffffff1673ffffffffffffffffffffffffffffffffffffffff163373ffffffffffffffffffffffffffffffffffffffff1614156106ee57818160080160006101000a81548173ffffffffffffffffffffffffffffffffffffffff021916908373ffffffffffffffffffffffffffffffffffffffff1602179055505b7f28780d98956952d32c254a5fabf97709ab94ed8049ef544aa0529ea4ed31659f81600001548260010160009054906101000a900473ffffffffffffffffffffffffffffffffffffffff168360020160009054906101000a900473ffffffffffffffffffffffffffffffffffffffff168460030160009054906101000a900473ffffffffffffffffffffffffffffffffffffffff168560040154866005015487600601548860070160009054906101000a900460ff168960070160019054906101000a900473ffffffffffffffffffffffffffffffffffffffff168a60080160009054906101000a900473ffffffffffffffffffffffffffffffffffffffff16426040516108069b9a999897969594939291906131d4565b60405180910390a1600073ffffffffffffffffffffffffffffffffffffffff168160070160019054906101000a900473ffffffffffffffffffffffffffffffffffffffff1673ffffffffffffffffffffffffffffffffffffffff16141580156108c05750600073ffffffffffffffffffffffffffffffffffffffff168160080160009054906101000a900473ffffffffffffffffffffffffffffffffffffffff1673ffffffffffffffffffffffffffffffffffffffff1614155b801561093f57508060080160009054906101000a900473ffffffffffffffffffffffffffffffffffffffff1673ffffffffffffffffffffffffffffffffffffffff168160070160019054906101000a900473ffffffffffffffffffffffffffffffffffffffff1673ffffffffffffffffffffffffffffffffffffffff16145b1561094e5761094d83612324565b5b505050565b60046020528060005260406000206000915090508060000154908060010160009054906101000a900473ffffffffffffffffffffffffffffffffffffffff16908060020160009054906101000a900473ffffffffffffffffffffffffffffffffffffffff16908060030160009054906101000a900473ffffffffffffffffffffffffffffffffffffffff16908060040154908060050154908060060154908060070160009054906101000a900460ff16908060070160019054906101000a900473ffffffffffffffffffffffffffffffffffffffff16908060080160009054906101000a900473ffffffffffffffffffffffffffffffffffffffff1690806009015490508b565b600073ffffffffffffffffffffffffffffffffffffffff168273ffffffffffffffffffffffffffffffffffffffff161415610a9457600080fd5b8173ffffffffffffffffffffffffffffffffffffffff166323b872dd3330846040518463ffffffff1660e01b8152600401610ad193929190612f99565b602060405180830381600087803b158015610aeb57600080fd5b505af1158015610aff573d6000803e3d6000fd5b505050506040513d601f19601f82011682018060405250810190610b239190612bdd565b610b2c57600080fd5b80600360008473ffffffffffffffffffffffffffffffffffffffff1673ffffffffffffffffffffffffffffffffffffffff16815260200190815260200160002060003373ffffffffffffffffffffffffffffffffffffffff1673ffffffffffffffffffffffffffffffffffffffff16815260200190815260200160002054610bb49190613290565b600360008473ffffffffffffffffffffffffffffffffffffffff1673ffffffffffffffffffffffffffffffffffffffff16815260200190815260200160002060003373ffffffffffffffffffffffffffffffffffffffff1673ffffffffffffffffffffffffffffffffffffffff168152602001908152602001600020819055507fdcbc1c05240f31ff3ad067ef1ee35ce4997762752e3a095284754544f4c709d7823383600360008773ffffffffffffffffffffffffffffffffffffffff1673ffffffffffffffffffffffffffffffffffffffff16815260200190815260200160002060003373ffffffffffffffffffffffffffffffffffffffff1673ffffffffffffffffffffffffffffffffffffffff16815260200190815260200160002054604051610ce59493929190612fd0565b60405180910390a15050565b600060046000838152602001908152602001600020905080600001548214610d4e576040517f08c379a0000000000000000000000000000000000000000000000000000000008152600401610d45906130f9565b60405180910390fd5b8060020160009054906101000a900473ffffffffffffffffffffffffffffffffffffffff1673ffffffffffffffffffffffffffffffffffffffff163373ffffffffffffffffffffffffffffffffffffffff1614610daa57600080fd5b600015156005600084815260200190815260200160002060009054906101000a900460ff16151514610e11576040517f08c379a0000000000000000000000000000000000000000000000000000000008152600401610e08906130d9565b60405180910390fd5b600015156006600084815260200190815260200160002060009054906101000a900460ff16151514610e78576040517f08c379a0000000000000000000000000000000000000000000000000000000008152600401610e6f90613079565b60405180910390fd5b60016005600084815260200190815260200160002060006101000a81548160ff02191690831515021790555080600601548160040154610eb89190613290565b600360008360010160009054906101000a900473ffffffffffffffffffffffffffffffffffffffff1673ffffffffffffffffffffffffffffffffffffffff1673ffffffffffffffffffffffffffffffffffffffff16815260200190815260200160002060003373ffffffffffffffffffffffffffffffffffffffff1673ffffffffffffffffffffffffffffffffffffffff1681526020019081526020016000206000828254610f679190613290565b9250508190555080600601548160040154610f829190613290565b600360008360010160009054906101000a900473ffffffffffffffffffffffffffffffffffffffff1673ffffffffffffffffffffffffffffffffffffffff1673ffffffffffffffffffffffffffffffffffffffff16815260200190815260200160002060003073ffffffffffffffffffffffffffffffffffffffff1673ffffffffffffffffffffffffffffffffffffffff16815260200190815260200160002060008282546110319190613340565b925050819055507fafd2afd561ba2f2ef0e947438f720010243f16dbdf89f06ba851022d91215da481600001548260010160009054906101000a900473ffffffffffffffffffffffffffffffffffffffff168360020160009054906101000a900473ffffffffffffffffffffffffffffffffffffffff168460030160009054906101000a900473ffffffffffffffffffffffffffffffffffffffff168560040154866005015487600601548860070160009054906101000a900460ff168960070160019054906101000a900473ffffffffffffffffffffffffffffffffffffffff168a60080160009054906101000a900473ffffffffffffffffffffffffffffffffffffffff16426040516111509b9a999897969594939291906131d4565b60405180910390a15050565b60025481565b6003602052816000526040600020602052806000526040600020600091509150505481565b60076020528060005260406000206000915054906101000a900460ff1681565b600060046000838152602001908152602001600020905080600001548214611204576040517f08c379a00000000000000000000000000000000000000000000000000000000081526004016111fb906130f9565b60405180910390fd5b600015156006600084815260200190815260200160002060009054906101000a900460ff1615151461126b576040517f08c379a000000000000000000000000000000000000000000000000000000000815260040161126290613079565b60405180910390fd5b600015156005600084815260200190815260200160002060009054906101000a900460ff161515146112d2576040517f08c379a00000000000000000000000000000000000000000000000000000000081526004016112c9906130d9565b60405180910390fd5b806006015481600501546112e69190613290565b600360008360010160009054906101000a900473ffffffffffffffffffffffffffffffffffffffff1673ffffffffffffffffffffffffffffffffffffffff1673ffffffffffffffffffffffffffffffffffffffff16815260200190815260200160002060003373ffffffffffffffffffffffffffffffffffffffff1673ffffffffffffffffffffffffffffffffffffffff1681526020019081526020016000205410156113c8576040517f08c379a00000000000000000000000000000000000000000000000000000000081526004016113bf90613099565b60405180910390fd5b600073ffffffffffffffffffffffffffffffffffffffff168160030160009054906101000a900473ffffffffffffffffffffffffffffffffffffffff1673ffffffffffffffffffffffffffffffffffffffff16148061147657503373ffffffffffffffffffffffffffffffffffffffff168160030160009054906101000a900473ffffffffffffffffffffffffffffffffffffffff1673ffffffffffffffffffffffffffffffffffffffff16145b6114b5576040517f08c379a00000000000000000000000000000000000000000000000000000000081526004016114ac90613179565b60405180910390fd5b600073ffffffffffffffffffffffffffffffffffffffff168160030160009054906101000a900473ffffffffffffffffffffffffffffffffffffffff1673ffffffffffffffffffffffffffffffffffffffff16141561155257338160030160006101000a81548173ffffffffffffffffffffffffffffffffffffffff021916908373ffffffffffffffffffffffffffffffffffffffff1602179055505b806006015481600501546115669190613290565b600360008360010160009054906101000a900473ffffffffffffffffffffffffffffffffffffffff1673ffffffffffffffffffffffffffffffffffffffff1673ffffffffffffffffffffffffffffffffffffffff16815260200190815260200160002060003373ffffffffffffffffffffffffffffffffffffffff1673ffffffffffffffffffffffffffffffffffffffff16815260200190815260200160002060008282546116159190613340565b92505081905550806006015481600501546116309190613290565b600360008360010160009054906101000a900473ffffffffffffffffffffffffffffffffffffffff1673ffffffffffffffffffffffffffffffffffffffff1673ffffffffffffffffffffffffffffffffffffffff16815260200190815260200160002060003073ffffffffffffffffffffffffffffffffffffffff1673ffffffffffffffffffffffffffffffffffffffff16815260200190815260200160002060008282546116df9190613290565b9250508190555060016006600084815260200190815260200160002060006101000a81548160ff0219169083151502179055507fd75187c194765f52d06190d9633bd397c8786c5885db920baf3433c7b02d341d81600001548260010160009054906101000a900473ffffffffffffffffffffffffffffffffffffffff168360020160009054906101000a900473ffffffffffffffffffffffffffffffffffffffff16338560040154866005015487600601548860070160009054906101000a900460ff168960070160019054906101000a900473ffffffffffffffffffffffffffffffffffffffff168a60080160009054906101000a900473ffffffffffffffffffffffffffffffffffffffff16426040516118069b9a999897969594939291906131d4565b60405180910390a15050565b61181a6129aa565b73ffffffffffffffffffffffffffffffffffffffff1661183861189a565b73ffffffffffffffffffffffffffffffffffffffff161461188e576040517f08c379a000000000000000000000000000000000000000000000000000000000815260040161188590613159565b60405180910390fd5b61189860006129b2565b565b60008060009054906101000a900473ffffffffffffffffffffffffffffffffffffffff16905090565b600073ffffffffffffffffffffffffffffffffffffffff168273ffffffffffffffffffffffffffffffffffffffff1614156118fd57600080fd5b80600360008473ffffffffffffffffffffffffffffffffffffffff1673ffffffffffffffffffffffffffffffffffffffff16815260200190815260200160002060003373ffffffffffffffffffffffffffffffffffffffff1673ffffffffffffffffffffffffffffffffffffffff16815260200190815260200160002054101561198657600080fd5b80600360008473ffffffffffffffffffffffffffffffffffffffff1673ffffffffffffffffffffffffffffffffffffffff16815260200190815260200160002060003373ffffffffffffffffffffffffffffffffffffffff1673ffffffffffffffffffffffffffffffffffffffff16815260200190815260200160002054611a0e9190613340565b600360008473ffffffffffffffffffffffffffffffffffffffff1673ffffffffffffffffffffffffffffffffffffffff16815260200190815260200160002060003373ffffffffffffffffffffffffffffffffffffffff1673ffffffffffffffffffffffffffffffffffffffff168152602001908152602001600020819055508173ffffffffffffffffffffffffffffffffffffffff1663a9059cbb33836040518363ffffffff1660e01b8152600401611ac9929190613015565b602060405180830381600087803b158015611ae357600080fd5b505af1158015611af7573d6000803e3d6000fd5b505050506040513d601f19601f82011682018060405250810190611b1b9190612bdd565b611b2457600080fd5b7ff341246adaac6f497bc2a656f546ab9e182111d630394f0c57c710a59a2cb567823383600360008773ffffffffffffffffffffffffffffffffffffffff1673ffffffffffffffffffffffffffffffffffffffff16815260200190815260200160002060003373ffffffffffffffffffffffffffffffffffffffff1673ffffffffffffffffffffffffffffffffffffffff16815260200190815260200160002054604051611bd59493929190612fd0565b60405180910390a15050565b60056020528060005260406000206000915054906101000a900460ff1681565b8273ffffffffffffffffffffffffffffffffffffffff163373ffffffffffffffffffffffffffffffffffffffff161415611c70576040517f08c379a0000000000000000000000000000000000000000000000000000000008152600401611c6790613119565b60405180910390fd5b60025482611c7e9190613290565b600360008673ffffffffffffffffffffffffffffffffffffffff1673ffffffffffffffffffffffffffffffffffffffff16815260200190815260200160002060003373ffffffffffffffffffffffffffffffffffffffff1673ffffffffffffffffffffffffffffffffffffffff168152602001908152602001600020541015611d3c576040517f08c379a0000000000000000000000000000000000000000000000000000000008152600401611d3390613099565b60405180910390fd5b60025482611d4a9190613290565b600360008673ffffffffffffffffffffffffffffffffffffffff1673ffffffffffffffffffffffffffffffffffffffff16815260200190815260200160002060003373ffffffffffffffffffffffffffffffffffffffff1673ffffffffffffffffffffffffffffffffffffffff1681526020019081526020016000206000828254611dd59190613340565b9250508190555060025482611dea9190613290565b600360008673ffffffffffffffffffffffffffffffffffffffff1673ffffffffffffffffffffffffffffffffffffffff16815260200190815260200160002060003073ffffffffffffffffffffffffffffffffffffffff1673ffffffffffffffffffffffffffffffffffffffff1681526020019081526020016000206000828254611e759190613290565b92505081905550611e866001612a76565b604051806101600160405280611e9c6001612a8c565b81526020018573ffffffffffffffffffffffffffffffffffffffff1681526020013373ffffffffffffffffffffffffffffffffffffffff1681526020018473ffffffffffffffffffffffffffffffffffffffff1681526020018381526020018281526020016002548152602001600015158152602001600073ffffffffffffffffffffffffffffffffffffffff168152602001600073ffffffffffffffffffffffffffffffffffffffff1681526020014281525060046000611f5e6001612a8c565b81526020019081526020016000206000820151816000015560208201518160010160006101000a81548173ffffffffffffffffffffffffffffffffffffffff021916908373ffffffffffffffffffffffffffffffffffffffff16021790555060408201518160020160006101000a81548173ffffffffffffffffffffffffffffffffffffffff021916908373ffffffffffffffffffffffffffffffffffffffff16021790555060608201518160030160006101000a81548173ffffffffffffffffffffffffffffffffffffffff021916908373ffffffffffffffffffffffffffffffffffffffff1602179055506080820151816004015560a0820151816005015560c0820151816006015560e08201518160070160006101000a81548160ff0219169083151502179055506101008201518160070160016101000a81548173ffffffffffffffffffffffffffffffffffffffff021916908373ffffffffffffffffffffffffffffffffffffffff1602179055506101208201518160080160006101000a81548173ffffffffffffffffffffffffffffffffffffffff021916908373ffffffffffffffffffffffffffffffffffffffff16021790555061014082015181600901559050507fc0c6cd866fb9b3c1f12dc9b2e96ea9dae1a9b7853706aee6c633a2d71c4ef5226121526001612a8c565b85338686866002546000806000426040516121779b9a999897969594939291906131d4565b60405180910390a150505050565b60066020528060005260406000206000915054906101000a900460ff1681565b6121ad6129aa565b73ffffffffffffffffffffffffffffffffffffffff166121cb61189a565b73ffffffffffffffffffffffffffffffffffffffff1614612221576040517f08c379a000000000000000000000000000000000000000000000000000000000815260040161221890613159565b60405180910390fd5b600073ffffffffffffffffffffffffffffffffffffffff168173ffffffffffffffffffffffffffffffffffffffff161415612291576040517f08c379a000000000000000000000000000000000000000000000000000000000815260040161228890613059565b60405180910390fd5b61229a816129b2565b50565b6000600360008473ffffffffffffffffffffffffffffffffffffffff1673ffffffffffffffffffffffffffffffffffffffff16815260200190815260200160002060008373ffffffffffffffffffffffffffffffffffffffff1673ffffffffffffffffffffffffffffffffffffffff16815260200190815260200160002054905092915050565b60006004600083815260200190815260200160002090506002816006015461234c91906132e6565b816005015482600401546123609190613290565b61236a9190613290565b600360008360010160009054906101000a900473ffffffffffffffffffffffffffffffffffffffff1673ffffffffffffffffffffffffffffffffffffffff1673ffffffffffffffffffffffffffffffffffffffff16815260200190815260200160002060003073ffffffffffffffffffffffffffffffffffffffff1673ffffffffffffffffffffffffffffffffffffffff16815260200190815260200160002060008282546124199190613340565b9250508190555060016007600084815260200190815260200160002060006101000a81548160ff0219169083151502179055508060080160009054906101000a900473ffffffffffffffffffffffffffffffffffffffff1673ffffffffffffffffffffffffffffffffffffffff168160020160009054906101000a900473ffffffffffffffffffffffffffffffffffffffff1673ffffffffffffffffffffffffffffffffffffffff1614156126a9578060060154816005015482600401546124e19190613290565b6124eb9190613290565b600360008360010160009054906101000a900473ffffffffffffffffffffffffffffffffffffffff1673ffffffffffffffffffffffffffffffffffffffff1673ffffffffffffffffffffffffffffffffffffffff16815260200190815260200160002060008360020160009054906101000a900473ffffffffffffffffffffffffffffffffffffffff1673ffffffffffffffffffffffffffffffffffffffff1673ffffffffffffffffffffffffffffffffffffffff16815260200190815260200160002060008282546125be9190613290565b925050819055508060060154600360008360010160009054906101000a900473ffffffffffffffffffffffffffffffffffffffff1673ffffffffffffffffffffffffffffffffffffffff1673ffffffffffffffffffffffffffffffffffffffff16815260200190815260200160002060008360030160009054906101000a900473ffffffffffffffffffffffffffffffffffffffff1673ffffffffffffffffffffffffffffffffffffffff1673ffffffffffffffffffffffffffffffffffffffff168152602001908152602001600020600082825461269d9190613290565b92505081905550612886565b8060060154600360008360010160009054906101000a900473ffffffffffffffffffffffffffffffffffffffff1673ffffffffffffffffffffffffffffffffffffffff1673ffffffffffffffffffffffffffffffffffffffff16815260200190815260200160002060008360020160009054906101000a900473ffffffffffffffffffffffffffffffffffffffff1673ffffffffffffffffffffffffffffffffffffffff1673ffffffffffffffffffffffffffffffffffffffff16815260200190815260200160002060008282546127819190613290565b925050819055508060060154816005015482600401546127a19190613290565b6127ab9190613290565b600360008360010160009054906101000a900473ffffffffffffffffffffffffffffffffffffffff1673ffffffffffffffffffffffffffffffffffffffff1673ffffffffffffffffffffffffffffffffffffffff16815260200190815260200160002060008360030160009054906101000a900473ffffffffffffffffffffffffffffffffffffffff1673ffffffffffffffffffffffffffffffffffffffff1673ffffffffffffffffffffffffffffffffffffffff168152602001908152602001600020600082825461287e9190613290565b925050819055505b7f71bcc89715c38bf3459ef1f613a02e849791b2be35b080e442a624dca0235a8b81600001548260010160009054906101000a900473ffffffffffffffffffffffffffffffffffffffff168360020160009054906101000a900473ffffffffffffffffffffffffffffffffffffffff168460030160009054906101000a900473ffffffffffffffffffffffffffffffffffffffff168560040154866005015487600601548860070160009054906101000a900460ff168960070160019054906101000a900473ffffffffffffffffffffffffffffffffffffffff168a60080160009054906101000a900473ffffffffffffffffffffffffffffffffffffffff164260405161299e9b9a999897969594939291906131d4565b60405180910390a15050565b600033905090565b60008060009054906101000a900473ffffffffffffffffffffffffffffffffffffffff169050816000806101000a81548173ffffffffffffffffffffffffffffffffffffffff021916908373ffffffffffffffffffffffffffffffffffffffff1602179055508173ffffffffffffffffffffffffffffffffffffffff168173ffffffffffffffffffffffffffffffffffffffff167f8be0079c531659141344cd1fd0a4f28419497f9722a3daafe3b4186f6b6457e060405160405180910390a35050565b6001816000016000828254019250508190555050565b600081600001549050919050565b600081359050612aa9816133eb565b92915050565b600081519050612abe81613402565b92915050565b600081359050612ad381613419565b92915050565b600060208284031215612aeb57600080fd5b6000612af984828501612a9a565b91505092915050565b60008060408385031215612b1557600080fd5b6000612b2385828601612a9a565b9250506020612b3485828601612a9a565b9150509250929050565b60008060008060808587031215612b5457600080fd5b6000612b6287828801612a9a565b9450506020612b7387828801612a9a565b9350506040612b8487828801612ac4565b9250506060612b9587828801612ac4565b91505092959194509250565b60008060408385031215612bb457600080fd5b6000612bc285828601612a9a565b9250506020612bd385828601612ac4565b9150509250929050565b600060208284031215612bef57600080fd5b6000612bfd84828501612aaf565b91505092915050565b600060208284031215612c1857600080fd5b6000612c2684828501612ac4565b91505092915050565b60008060408385031215612c4257600080fd5b6000612c5085828601612ac4565b9250506020612c6185828601612a9a565b9150509250929050565b612c7481613374565b82525050565b612c8381613386565b82525050565b6000612c9660268361327f565b91507f4f776e61626c653a206e6577206f776e657220697320746865207a65726f206160008301527f64647265737300000000000000000000000000000000000000000000000000006020830152604082019050919050565b6000612cfc60148361327f565b91507f62657420616c72656164792061636365707465640000000000000000000000006000830152602082019050919050565b6000612d3c60138361327f565b91507f696e737566666963656e742062616c616e6365000000000000000000000000006000830152602082019050919050565b6000612d7c60148361327f565b91507f626574206e6f74206163636570746564207965740000000000000000000000006000830152602082019050919050565b6000612dbc60158361327f565b91507f62657420616c72656164792063616e63656c6c656400000000000000000000006000830152602082019050919050565b6000612dfc60128361327f565b91507f62657420646f6573206e6f7420657869737400000000000000000000000000006000830152602082019050919050565b6000612e3c60168361327f565b91507f74616b65722063616e6e6f742062652073656e646572000000000000000000006000830152602082019050919050565b6000612e7c601c8361327f565b91507f73656e646572206973206e6f74206d616b6572206f722074616b6572000000006000830152602082019050919050565b6000612ebc60208361327f565b91507f4f776e61626c653a2063616c6c6572206973206e6f7420746865206f776e65726000830152602082019050919050565b6000612efc60138361327f565b91507f74616b65722061646472657373206572726f72000000000000000000000000006000830152602082019050919050565b6000612f3c60128361327f565b91507f62657420616c726561647920636c6f73656400000000000000000000000000006000830152602082019050919050565b612f78816133b2565b82525050565b6000602082019050612f936000830184612c6b565b92915050565b6000606082019050612fae6000830186612c6b565b612fbb6020830185612c6b565b612fc86040830184612f6f565b949350505050565b6000608082019050612fe56000830187612c6b565b612ff26020830186612c6b565b612fff6040830185612f6f565b61300c6060830184612f6f565b95945050505050565b600060408201905061302a6000830185612c6b565b6130376020830184612f6f565b9392505050565b60006020820190506130536000830184612c7a565b92915050565b6000602082019050818103600083015261307281612c89565b9050919050565b6000602082019050818103600083015261309281612cef565b9050919050565b600060208201905081810360008301526130b281612d2f565b9050919050565b600060208201905081810360008301526130d281612d6f565b9050919050565b600060208201905081810360008301526130f281612daf565b9050919050565b6000602082019050818103600083015261311281612def565b9050919050565b6000602082019050818103600083015261313281612e2f565b9050919050565b6000602082019050818103600083015261315281612e6f565b9050919050565b6000602082019050818103600083015261317281612eaf565b9050919050565b6000602082019050818103600083015261319281612eef565b9050919050565b600060208201905081810360008301526131b281612f2f565b9050919050565b60006020820190506131ce6000830184612f6f565b92915050565b6000610160820190506131ea600083018e612f6f565b6131f7602083018d612c6b565b613204604083018c612c6b565b613211606083018b612c6b565b61321e608083018a612f6f565b61322b60a0830189612f6f565b61323860c0830188612f6f565b61324560e0830187612c7a565b613253610100830186612c6b565b613261610120830185612c6b565b61326f610140830184612f6f565b9c9b505050505050505050505050565b600082825260208201905092915050565b600061329b826133b2565b91506132a6836133b2565b9250827fffffffffffffffffffffffffffffffffffffffffffffffffffffffffffffffff038211156132db576132da6133bc565b5b828201905092915050565b60006132f1826133b2565b91506132fc836133b2565b9250817fffffffffffffffffffffffffffffffffffffffffffffffffffffffffffffffff0483118215151615613335576133346133bc565b5b828202905092915050565b600061334b826133b2565b9150613356836133b2565b925082821015613369576133686133bc565b5b828203905092915050565b600061337f82613392565b9050919050565b60008115159050919050565b600073ffffffffffffffffffffffffffffffffffffffff82169050919050565b6000819050919050565b7f4e487b7100000000000000000000000000000000000000000000000000000000600052601160045260246000fd5b6133f481613374565b81146133ff57600080fd5b50565b61340b81613386565b811461341657600080fd5b50565b613422816133b2565b811461342d57600080fd5b5056fea2646970667358221220f4ddffe6d06588c30f8ad528496f7038ab7a947017d8abb466c61a61f95fd71564736f6c63430008000033",
  "immutableReferences": {},
  "source": "// SPDX-License-Identifier: MIT\npragma solidity >=0.4.22 <0.9.0;\n\nimport \"@openzeppelin/contracts/access/Ownable.sol\";\nimport \"@openzeppelin/contracts/utils/Counters.sol\";\nimport './Token.sol';\n\ncontract Exchange is Ownable {\n  using Counters for Counters.Counter;\n  Counters.Counter private _betCount;\n\n  uint256 public depositAmount; // returned after bet closed - incentive to close bet\n  address constant ADDRESS_0X0 = address(0); // blank address\n\n  mapping(address => mapping(address => uint256)) public tokens;\n  mapping(uint256 => _Bet) public bets;\n  mapping(uint256 => bool) public cancelled;\n  mapping(uint256 => bool) public accepted;\n  mapping(uint256 => bool) public closed;\n\n  event Deposit(address token, address user, uint256 amount, uint256 balance);\n  event Withdraw(address token, address user, uint256 amount, uint256 balance);\n  event BetCreated(uint256 id, address token, address maker, address taker, uint256 amountMaker, uint256 amountTaker, uint256 depositAmount, bool accepted, address winnerMaker, address winnerTaker, uint256 timestamp);\n  event BetCancelled(uint256 id, address token, address maker, address taker, uint256 amountMaker, uint256 amountTaker, uint256 depositAmount, bool accepted, address winnerMaker, address winnerTaker, uint256 timestamp);\n  event BetAccepted(uint256 id, address token, address maker, address taker, uint256 amountMaker, uint256 amountTaker, uint256 depositAmount, bool accepted, address winnerMaker, address winnerTaker, uint256 timestamp);\n  event WinnerSubmitted(uint256 id, address token, address maker, address taker, uint256 amountMaker, uint256 amountTaker, uint256 depositAmount, bool accepted, address winnerMaker, address winnerTaker, uint256 timestamp);\n  event BetClosed(uint256 id, address token, address maker, address taker, uint256 amountMaker, uint256 amountTaker, uint256 depositAmount, bool accepted, address winnerMaker, address winnerTaker, uint256 timestamp);\n\n  struct _Bet {\n    uint256 id;\n    address token;\n    address maker;\n    address taker;\n    uint256 amountMaker;\n    uint256 amountTaker;\n    uint256 amountDeposit;\n    bool accepted; // TODOO: remove this\n    address winnerMaker;\n    address winnerTaker;\n    uint256 timestamp;\n    }\n\n  constructor (uint256 _depositAmount) {\n    depositAmount = _depositAmount;\n  }\n\n\n  function depositToken(address _token, uint256 _amount) public {\n    require(_token != ADDRESS_0X0);\n    require(Token(_token).transferFrom(msg.sender, address(this), _amount));\n    tokens[_token][msg.sender] = tokens[_token][msg.sender] + _amount;\n    emit Deposit(_token, msg.sender, _amount, tokens[_token][msg.sender]);\n  }\n\n  function withdrawToken(address _token, uint256 _amount) public {\n    require(_token != ADDRESS_0X0);\n    require(tokens[_token][msg.sender] >= _amount);\n    tokens[_token][msg.sender] = tokens[_token][msg.sender] - _amount;\n    require(Token(_token).transfer(msg.sender, _amount));\n    emit Withdraw(_token, msg.sender, _amount, tokens[_token][msg.sender]);\n  }\n\n  function balanceOf(address _token, address _user) public view returns(uint256 _balance) {\n      return tokens[_token][_user];\n  }\n  \n  function createBet(address _token, address _taker, uint256 _amountMaker, uint256 _amountTaker) public {\n    require(msg.sender != _taker, 'taker cannot be sender');\n    require(tokens[_token][msg.sender] >= (_amountMaker + depositAmount), 'insufficent balance');\n\n    tokens[_token][msg.sender] -= (_amountMaker + depositAmount);\n    tokens[_token][address(this)] += (_amountMaker + depositAmount);\n\n    _betCount.increment();\n    bets[_betCount.current()] = _Bet(_betCount.current(), _token, msg.sender, _taker, _amountMaker, _amountTaker, depositAmount, false, ADDRESS_0X0, ADDRESS_0X0, block.timestamp);\n\n    emit BetCreated(_betCount.current(), _token, msg.sender, _taker, _amountMaker, _amountTaker, depositAmount, false, ADDRESS_0X0, ADDRESS_0X0, block.timestamp);\n  }\n\n  function cancelBet(uint256 _id) public {\n    _Bet storage _bet = bets[_id];\n    require(_id == _bet.id, 'bet does not exist');\n    require(msg.sender == address(_bet.maker));\n    require(cancelled[_id] == false, 'bet already cancelled');\n    require(accepted[_id] == false, 'bet already accepted');\n    \n    cancelled[_id] = true;\n\n    tokens[_bet.token][msg.sender] += (_bet.amountMaker + _bet.amountDeposit); // options: add fees or keep deposit\n    tokens[_bet.token][address(this)] -= (_bet.amountMaker + _bet.amountDeposit);\n\n    emit BetCancelled(_bet.id, _bet.token, _bet.maker, _bet.taker, _bet.amountMaker, _bet.amountTaker, _bet.amountDeposit, _bet.accepted, _bet.winnerMaker, _bet.winnerTaker, block.timestamp);\n  }\n\n  function acceptBet(uint256 _id) public {\n    _Bet storage _bet = bets[_id];\n    require(_id == _bet.id, 'bet does not exist');\n    require(accepted[_id] == false, 'bet already accepted');\n    require(cancelled[_id] == false, 'bet already cancelled');\n    require(tokens[_bet.token][msg.sender] >= (_bet.amountTaker + _bet.amountDeposit), 'insufficent balance');\n    require(_bet.taker == ADDRESS_0X0 || _bet.taker == msg.sender, 'taker address error');\n\n    if (_bet.taker == ADDRESS_0X0) {\n      _bet.taker = msg.sender;\n    }\n\n    tokens[_bet.token][msg.sender] -= (_bet.amountTaker + _bet.amountDeposit);\n    tokens[_bet.token][address(this)] += (_bet.amountTaker + _bet.amountDeposit);\n    accepted[_id] = true;\n    emit BetAccepted(_bet.id, _bet.token, _bet.maker, msg.sender, _bet.amountMaker, _bet.amountTaker, _bet.amountDeposit, _bet.accepted, _bet.winnerMaker, _bet.winnerTaker, block.timestamp);\n  }\n\n  function submitWinner(uint256 _id, address _winner) public {\n    _Bet storage _bet = bets[_id];\n    require(_id == _bet.id, 'bet does not exist');\n    require(cancelled[_id] == false, 'bet already cancelled');\n    require(accepted[_id] == true, 'bet not accepted yet');\n    require(closed[_id] == false, 'bet already closed');\n    require(_bet.maker == msg.sender || _bet.taker == msg.sender, 'sender is not maker or taker');\n\n    if (msg.sender == _bet.maker) {\n      _bet.winnerMaker = _winner;\n    }\n\n    if (msg.sender == _bet.taker) {\n      _bet.winnerTaker = _winner;\n    }\n\n    emit WinnerSubmitted(_bet.id, _bet.token, _bet.maker, _bet.taker, _bet.amountMaker, _bet.amountTaker, _bet.amountDeposit, _bet.accepted, _bet.winnerMaker, _bet.winnerTaker, block.timestamp);\n\n    if (_bet.winnerMaker != ADDRESS_0X0 && _bet.winnerTaker != ADDRESS_0X0 && _bet.winnerMaker == _bet.winnerTaker) {\n      _closeBet(_id);\n    }\n  }\n\n  function _closeBet(uint256 _id) private {\n    _Bet storage _bet = bets[_id];\n    tokens[_bet.token][address(this)] -= (_bet.amountMaker + _bet.amountTaker + (_bet.amountDeposit * 2));\n    closed[_id] = true;\n\n    if (_bet.maker == _bet.winnerTaker) {\n      tokens[_bet.token][_bet.maker] += (_bet.amountMaker + _bet.amountTaker + _bet.amountDeposit);\n      tokens[_bet.token][_bet.taker] += _bet.amountDeposit;\n    } else {\n      tokens[_bet.token][_bet.maker] += _bet.amountDeposit;\n      tokens[_bet.token][_bet.taker] += (_bet.amountMaker + _bet.amountTaker + _bet.amountDeposit);\n    } \n\n    emit BetClosed(_bet.id, _bet.token, _bet.maker, _bet.taker, _bet.amountMaker, _bet.amountTaker, _bet.amountDeposit, _bet.accepted, _bet.winnerMaker, _bet.winnerTaker, block.timestamp);\n  }\n}",
  "sourcePath": "/Users/andrewmlevy/Desktop/Test_WIP/src/contracts/Exchange.sol",
  "compiler": {
    "name": "solc",
    "version": "0.8.0+commit.c7dfd78e.Emscripten.clang"
  },
  "schemaVersion": "3.4.3",
  "updatedAt": "2021-12-24T18:34:54.297Z",
  "networkType": "ethereum",
  "devdoc": {
    "kind": "dev",
    "methods": {
      "owner()": {
        "details": "Returns the address of the current owner."
      },
      "renounceOwnership()": {
        "details": "Leaves the contract without owner. It will not be possible to call `onlyOwner` functions anymore. Can only be called by the current owner. NOTE: Renouncing ownership will leave the contract without an owner, thereby removing any functionality that is only available to the owner."
      },
      "transferOwnership(address)": {
        "details": "Transfers ownership of the contract to a new account (`newOwner`). Can only be called by the current owner."
      }
    },
    "version": 1
  },
  "userdoc": {
    "kind": "user",
    "methods": {},
    "version": 1
  }
}