{
  "contractName": "Exchange",
  "abi": [
    {
      "inputs": [
        {
          "internalType": "uint256",
          "name": "_depositAmount",
          "type": "uint256"
        }
      ],
      "stateMutability": "nonpayable",
      "type": "constructor"
    },
    {
      "anonymous": false,
      "inputs": [
        {
          "indexed": false,
          "internalType": "uint256",
          "name": "id",
          "type": "uint256"
        },
        {
          "indexed": false,
          "internalType": "address",
          "name": "token",
          "type": "address"
        },
        {
          "indexed": false,
          "internalType": "address",
          "name": "maker",
          "type": "address"
        },
        {
          "indexed": false,
          "internalType": "address",
          "name": "taker",
          "type": "address"
        },
        {
          "indexed": false,
          "internalType": "uint256",
          "name": "amountMaker",
          "type": "uint256"
        },
        {
          "indexed": false,
          "internalType": "uint256",
          "name": "amountTaker",
          "type": "uint256"
        },
        {
          "indexed": false,
          "internalType": "uint256",
          "name": "depositAmount",
          "type": "uint256"
        },
        {
          "indexed": false,
          "internalType": "string",
          "name": "name",
          "type": "string"
        },
        {
          "indexed": false,
          "internalType": "address",
          "name": "winnerMaker",
          "type": "address"
        },
        {
          "indexed": false,
          "internalType": "address",
          "name": "winnerTaker",
          "type": "address"
        },
        {
          "indexed": false,
          "internalType": "uint256",
          "name": "timestamp",
          "type": "uint256"
        }
      ],
      "name": "BetAccepted",
      "type": "event"
    },
    {
      "anonymous": false,
      "inputs": [
        {
          "indexed": false,
          "internalType": "uint256",
          "name": "id",
          "type": "uint256"
        },
        {
          "indexed": false,
          "internalType": "address",
          "name": "token",
          "type": "address"
        },
        {
          "indexed": false,
          "internalType": "address",
          "name": "maker",
          "type": "address"
        },
        {
          "indexed": false,
          "internalType": "address",
          "name": "taker",
          "type": "address"
        },
        {
          "indexed": false,
          "internalType": "uint256",
          "name": "amountMaker",
          "type": "uint256"
        },
        {
          "indexed": false,
          "internalType": "uint256",
          "name": "amountTaker",
          "type": "uint256"
        },
        {
          "indexed": false,
          "internalType": "uint256",
          "name": "depositAmount",
          "type": "uint256"
        },
        {
          "indexed": false,
          "internalType": "string",
          "name": "name",
          "type": "string"
        },
        {
          "indexed": false,
          "internalType": "address",
          "name": "winnerMaker",
          "type": "address"
        },
        {
          "indexed": false,
          "internalType": "address",
          "name": "winnerTaker",
          "type": "address"
        },
        {
          "indexed": false,
          "internalType": "uint256",
          "name": "timestamp",
          "type": "uint256"
        }
      ],
      "name": "BetCancelled",
      "type": "event"
    },
    {
      "anonymous": false,
      "inputs": [
        {
          "indexed": false,
          "internalType": "uint256",
          "name": "id",
          "type": "uint256"
        },
        {
          "indexed": false,
          "internalType": "address",
          "name": "token",
          "type": "address"
        },
        {
          "indexed": false,
          "internalType": "address",
          "name": "maker",
          "type": "address"
        },
        {
          "indexed": false,
          "internalType": "address",
          "name": "taker",
          "type": "address"
        },
        {
          "indexed": false,
          "internalType": "uint256",
          "name": "amountMaker",
          "type": "uint256"
        },
        {
          "indexed": false,
          "internalType": "uint256",
          "name": "amountTaker",
          "type": "uint256"
        },
        {
          "indexed": false,
          "internalType": "uint256",
          "name": "depositAmount",
          "type": "uint256"
        },
        {
          "indexed": false,
          "internalType": "string",
          "name": "name",
          "type": "string"
        },
        {
          "indexed": false,
          "internalType": "address",
          "name": "winnerMaker",
          "type": "address"
        },
        {
          "indexed": false,
          "internalType": "address",
          "name": "winnerTaker",
          "type": "address"
        },
        {
          "indexed": false,
          "internalType": "uint256",
          "name": "timestamp",
          "type": "uint256"
        }
      ],
      "name": "BetClosed",
      "type": "event"
    },
    {
      "anonymous": false,
      "inputs": [
        {
          "indexed": false,
          "internalType": "uint256",
          "name": "id",
          "type": "uint256"
        },
        {
          "indexed": false,
          "internalType": "address",
          "name": "token",
          "type": "address"
        },
        {
          "indexed": false,
          "internalType": "address",
          "name": "maker",
          "type": "address"
        },
        {
          "indexed": false,
          "internalType": "address",
          "name": "taker",
          "type": "address"
        },
        {
          "indexed": false,
          "internalType": "uint256",
          "name": "amountMaker",
          "type": "uint256"
        },
        {
          "indexed": false,
          "internalType": "uint256",
          "name": "amountTaker",
          "type": "uint256"
        },
        {
          "indexed": false,
          "internalType": "uint256",
          "name": "depositAmount",
          "type": "uint256"
        },
        {
          "indexed": false,
          "internalType": "string",
          "name": "name",
          "type": "string"
        },
        {
          "indexed": false,
          "internalType": "address",
          "name": "winnerMaker",
          "type": "address"
        },
        {
          "indexed": false,
          "internalType": "address",
          "name": "winnerTaker",
          "type": "address"
        },
        {
          "indexed": false,
          "internalType": "uint256",
          "name": "timestamp",
          "type": "uint256"
        }
      ],
      "name": "BetCreated",
      "type": "event"
    },
    {
      "anonymous": false,
      "inputs": [
        {
          "indexed": false,
          "internalType": "address",
          "name": "token",
          "type": "address"
        },
        {
          "indexed": false,
          "internalType": "address",
          "name": "user",
          "type": "address"
        },
        {
          "indexed": false,
          "internalType": "uint256",
          "name": "amount",
          "type": "uint256"
        },
        {
          "indexed": false,
          "internalType": "uint256",
          "name": "balance",
          "type": "uint256"
        }
      ],
      "name": "Deposit",
      "type": "event"
    },
    {
      "anonymous": false,
      "inputs": [
        {
          "indexed": true,
          "internalType": "address",
          "name": "previousOwner",
          "type": "address"
        },
        {
          "indexed": true,
          "internalType": "address",
          "name": "newOwner",
          "type": "address"
        }
      ],
      "name": "OwnershipTransferred",
      "type": "event"
    },
    {
      "anonymous": false,
      "inputs": [
        {
          "indexed": false,
          "internalType": "uint256",
          "name": "id",
          "type": "uint256"
        },
        {
          "indexed": false,
          "internalType": "address",
          "name": "token",
          "type": "address"
        },
        {
          "indexed": false,
          "internalType": "address",
          "name": "maker",
          "type": "address"
        },
        {
          "indexed": false,
          "internalType": "address",
          "name": "taker",
          "type": "address"
        },
        {
          "indexed": false,
          "internalType": "uint256",
          "name": "amountMaker",
          "type": "uint256"
        },
        {
          "indexed": false,
          "internalType": "uint256",
          "name": "amountTaker",
          "type": "uint256"
        },
        {
          "indexed": false,
          "internalType": "uint256",
          "name": "depositAmount",
          "type": "uint256"
        },
        {
          "indexed": false,
          "internalType": "string",
          "name": "name",
          "type": "string"
        },
        {
          "indexed": false,
          "internalType": "address",
          "name": "winnerMaker",
          "type": "address"
        },
        {
          "indexed": false,
          "internalType": "address",
          "name": "winnerTaker",
          "type": "address"
        },
        {
          "indexed": false,
          "internalType": "uint256",
          "name": "timestamp",
          "type": "uint256"
        }
      ],
      "name": "WinnerSubmitted",
      "type": "event"
    },
    {
      "anonymous": false,
      "inputs": [
        {
          "indexed": false,
          "internalType": "address",
          "name": "token",
          "type": "address"
        },
        {
          "indexed": false,
          "internalType": "address",
          "name": "user",
          "type": "address"
        },
        {
          "indexed": false,
          "internalType": "uint256",
          "name": "amount",
          "type": "uint256"
        },
        {
          "indexed": false,
          "internalType": "uint256",
          "name": "balance",
          "type": "uint256"
        }
      ],
      "name": "Withdraw",
      "type": "event"
    },
    {
      "inputs": [
        {
          "internalType": "uint256",
          "name": "",
          "type": "uint256"
        }
      ],
      "name": "accepted",
      "outputs": [
        {
          "internalType": "bool",
          "name": "",
          "type": "bool"
        }
      ],
      "stateMutability": "view",
      "type": "function",
      "constant": true
    },
    {
      "inputs": [
        {
          "internalType": "uint256",
          "name": "",
          "type": "uint256"
        }
      ],
      "name": "bets",
      "outputs": [
        {
          "internalType": "uint256",
          "name": "id",
          "type": "uint256"
        },
        {
          "internalType": "address",
          "name": "token",
          "type": "address"
        },
        {
          "internalType": "address",
          "name": "maker",
          "type": "address"
        },
        {
          "internalType": "address",
          "name": "taker",
          "type": "address"
        },
        {
          "internalType": "uint256",
          "name": "amountMaker",
          "type": "uint256"
        },
        {
          "internalType": "uint256",
          "name": "amountTaker",
          "type": "uint256"
        },
        {
          "internalType": "uint256",
          "name": "amountDeposit",
          "type": "uint256"
        },
        {
          "internalType": "string",
          "name": "name",
          "type": "string"
        },
        {
          "internalType": "address",
          "name": "winnerMaker",
          "type": "address"
        },
        {
          "internalType": "address",
          "name": "winnerTaker",
          "type": "address"
        },
        {
          "internalType": "uint256",
          "name": "timestamp",
          "type": "uint256"
        }
      ],
      "stateMutability": "view",
      "type": "function",
      "constant": true
    },
    {
      "inputs": [
        {
          "internalType": "uint256",
          "name": "",
          "type": "uint256"
        }
      ],
      "name": "cancelled",
      "outputs": [
        {
          "internalType": "bool",
          "name": "",
          "type": "bool"
        }
      ],
      "stateMutability": "view",
      "type": "function",
      "constant": true
    },
    {
      "inputs": [
        {
          "internalType": "uint256",
          "name": "",
          "type": "uint256"
        }
      ],
      "name": "closed",
      "outputs": [
        {
          "internalType": "bool",
          "name": "",
          "type": "bool"
        }
      ],
      "stateMutability": "view",
      "type": "function",
      "constant": true
    },
    {
      "inputs": [],
      "name": "depositAmount",
      "outputs": [
        {
          "internalType": "uint256",
          "name": "",
          "type": "uint256"
        }
      ],
      "stateMutability": "view",
      "type": "function",
      "constant": true
    },
    {
      "inputs": [],
      "name": "owner",
      "outputs": [
        {
          "internalType": "address",
          "name": "",
          "type": "address"
        }
      ],
      "stateMutability": "view",
      "type": "function",
      "constant": true
    },
    {
      "inputs": [],
      "name": "renounceOwnership",
      "outputs": [],
      "stateMutability": "nonpayable",
      "type": "function"
    },
    {
      "inputs": [
        {
          "internalType": "address",
          "name": "",
          "type": "address"
        },
        {
          "internalType": "address",
          "name": "",
          "type": "address"
        }
      ],
      "name": "tokens",
      "outputs": [
        {
          "internalType": "uint256",
          "name": "",
          "type": "uint256"
        }
      ],
      "stateMutability": "view",
      "type": "function",
      "constant": true
    },
    {
      "inputs": [
        {
          "internalType": "address",
          "name": "newOwner",
          "type": "address"
        }
      ],
      "name": "transferOwnership",
      "outputs": [],
      "stateMutability": "nonpayable",
      "type": "function"
    },
    {
      "inputs": [
        {
          "internalType": "address",
          "name": "_token",
          "type": "address"
        },
        {
          "internalType": "uint256",
          "name": "_amount",
          "type": "uint256"
        }
      ],
      "name": "depositToken",
      "outputs": [],
      "stateMutability": "nonpayable",
      "type": "function"
    },
    {
      "inputs": [
        {
          "internalType": "address",
          "name": "_token",
          "type": "address"
        },
        {
          "internalType": "uint256",
          "name": "_amount",
          "type": "uint256"
        }
      ],
      "name": "withdrawToken",
      "outputs": [],
      "stateMutability": "nonpayable",
      "type": "function"
    },
    {
      "inputs": [
        {
          "internalType": "address",
          "name": "_token",
          "type": "address"
        },
        {
          "internalType": "address",
          "name": "_user",
          "type": "address"
        }
      ],
      "name": "balanceOf",
      "outputs": [
        {
          "internalType": "uint256",
          "name": "_balance",
          "type": "uint256"
        }
      ],
      "stateMutability": "view",
      "type": "function",
      "constant": true
    },
    {
      "inputs": [
        {
          "internalType": "address",
          "name": "_token",
          "type": "address"
        },
        {
          "internalType": "address",
          "name": "_taker",
          "type": "address"
        },
        {
          "internalType": "uint256",
          "name": "_amountMaker",
          "type": "uint256"
        },
        {
          "internalType": "uint256",
          "name": "_amountTaker",
          "type": "uint256"
        },
        {
          "internalType": "string",
          "name": "_name",
          "type": "string"
        }
      ],
      "name": "createBet",
      "outputs": [],
      "stateMutability": "nonpayable",
      "type": "function"
    },
    {
      "inputs": [
        {
          "internalType": "uint256",
          "name": "_id",
          "type": "uint256"
        }
      ],
      "name": "cancelBet",
      "outputs": [],
      "stateMutability": "nonpayable",
      "type": "function"
    },
    {
      "inputs": [
        {
          "internalType": "uint256",
          "name": "_id",
          "type": "uint256"
        }
      ],
      "name": "acceptBet",
      "outputs": [],
      "stateMutability": "nonpayable",
      "type": "function"
    },
    {
      "inputs": [
        {
          "internalType": "uint256",
          "name": "_id",
          "type": "uint256"
        },
        {
          "internalType": "address",
          "name": "_winner",
          "type": "address"
        }
      ],
      "name": "submitWinner",
      "outputs": [],
      "stateMutability": "nonpayable",
      "type": "function"
    }
  ],
  "bytecode": "0x60806040523480156200001157600080fd5b5060405162003a5838038062003a58833981810160405281019062000037919062000148565b620000576200004b6200006560201b60201c565b6200006d60201b60201c565b806002819055505062000198565b600033905090565b60008060009054906101000a900473ffffffffffffffffffffffffffffffffffffffff169050816000806101000a81548173ffffffffffffffffffffffffffffffffffffffff021916908373ffffffffffffffffffffffffffffffffffffffff1602179055508173ffffffffffffffffffffffffffffffffffffffff168173ffffffffffffffffffffffffffffffffffffffff167f8be0079c531659141344cd1fd0a4f28419497f9722a3daafe3b4186f6b6457e060405160405180910390a35050565b60008151905062000142816200017e565b92915050565b6000602082840312156200015b57600080fd5b60006200016b8482850162000131565b91505092915050565b6000819050919050565b620001898162000174565b81146200019557600080fd5b50565b6138b080620001a86000396000f3fe608060405234801561001057600080fd5b50600436106100ff5760003560e01c8063715018a611610097578063e050be5711610066578063e050be571461028c578063f19b8273146102bc578063f2fde38b146102ec578063f7888aec14610308576100ff565b8063715018a61461022c5780638da5cb5b146102365780639603effc146102545780639e281a9814610270576100ff565b8063419759f5116100d3578063419759f514610192578063508493bc146101b05780635c959b62146101e05780636c0c27e114610210576100ff565b8062f7f2451461010457806322af00fa14610120578063338b5dea1461015a578063357401f514610176575b600080fd5b61011e60048036038101906101199190612da3565b610338565b005b61013a60048036038101906101359190612d7a565b610945565b6040516101519b9a99989796959493929190613401565b60405180910390f35b610174600480360381019061016f9190612d15565b610ac7565b005b610190600480360381019061018b9190612d7a565b610d5e565b005b61019a6111bb565b6040516101a791906133e6565b60405180910390f35b6101ca60048036038101906101c59190612c4a565b6111c1565b6040516101d791906133e6565b60405180910390f35b6101fa60048036038101906101f59190612d7a565b6111e6565b604051610207919061326b565b60405180910390f35b61022a60048036038101906102259190612d7a565b611206565b005b610234611863565b005b61023e6118eb565b60405161024b91906131ab565b60405180910390f35b61026e60048036038101906102699190612c86565b611914565b005b61028a60048036038101906102859190612d15565b611e92565b005b6102a660048036038101906102a19190612d7a565b6121b0565b6040516102b3919061326b565b60405180910390f35b6102d660048036038101906102d19190612d7a565b6121d0565b6040516102e3919061326b565b60405180910390f35b61030660048036038101906103019190612c21565b6121f0565b005b610322600480360381019061031d9190612c4a565b6122e8565b60405161032f91906133e6565b60405180910390f35b600060046000848152602001908152602001600020905080600001548314610395576040517f08c379a000000000000000000000000000000000000000000000000000000000815260040161038c90613326565b60405180910390fd5b600015156005600085815260200190815260200160002060009054906101000a900460ff161515146103fc576040517f08c379a00000000000000000000000000000000000000000000000000000000081526004016103f390613306565b60405180910390fd5b600115156006600085815260200190815260200160002060009054906101000a900460ff16151514610463576040517f08c379a000000000000000000000000000000000000000000000000000000000815260040161045a906132e6565b60405180910390fd5b600015156007600085815260200190815260200160002060009054906101000a900460ff161515146104ca576040517f08c379a00000000000000000000000000000000000000000000000000000000081526004016104c1906133c6565b60405180910390fd5b3373ffffffffffffffffffffffffffffffffffffffff168160020160009054906101000a900473ffffffffffffffffffffffffffffffffffffffff1673ffffffffffffffffffffffffffffffffffffffff16148061057757503373ffffffffffffffffffffffffffffffffffffffff168160030160009054906101000a900473ffffffffffffffffffffffffffffffffffffffff1673ffffffffffffffffffffffffffffffffffffffff16145b6105b6576040517f08c379a00000000000000000000000000000000000000000000000000000000081526004016105ad90613366565b60405180910390fd5b8060020160009054906101000a900473ffffffffffffffffffffffffffffffffffffffff1673ffffffffffffffffffffffffffffffffffffffff163373ffffffffffffffffffffffffffffffffffffffff16141561065257818160080160006101000a81548173ffffffffffffffffffffffffffffffffffffffff021916908373ffffffffffffffffffffffffffffffffffffffff1602179055505b8060030160009054906101000a900473ffffffffffffffffffffffffffffffffffffffff1673ffffffffffffffffffffffffffffffffffffffff163373ffffffffffffffffffffffffffffffffffffffff1614156106ee57818160090160006101000a81548173ffffffffffffffffffffffffffffffffffffffff021916908373ffffffffffffffffffffffffffffffffffffffff1602179055505b7f2bb8a8b9f304b2b5962bed66f988badcdcc7c74f76d94d198fb8166b966684a081600001548260010160009054906101000a900473ffffffffffffffffffffffffffffffffffffffff168360020160009054906101000a900473ffffffffffffffffffffffffffffffffffffffff168460030160009054906101000a900473ffffffffffffffffffffffffffffffffffffffff16856004015486600501548760060154886007018960080160009054906101000a900473ffffffffffffffffffffffffffffffffffffffff168a60090160009054906101000a900473ffffffffffffffffffffffffffffffffffffffff16426040516107f89b9a999897969594939291906134b3565b60405180910390a1600073ffffffffffffffffffffffffffffffffffffffff168160080160009054906101000a900473ffffffffffffffffffffffffffffffffffffffff1673ffffffffffffffffffffffffffffffffffffffff16141580156108b25750600073ffffffffffffffffffffffffffffffffffffffff168160090160009054906101000a900473ffffffffffffffffffffffffffffffffffffffff1673ffffffffffffffffffffffffffffffffffffffff1614155b801561093157508060090160009054906101000a900473ffffffffffffffffffffffffffffffffffffffff1673ffffffffffffffffffffffffffffffffffffffff168160080160009054906101000a900473ffffffffffffffffffffffffffffffffffffffff1673ffffffffffffffffffffffffffffffffffffffff16145b156109405761093f8361236f565b5b505050565b60046020528060005260406000206000915090508060000154908060010160009054906101000a900473ffffffffffffffffffffffffffffffffffffffff16908060020160009054906101000a900473ffffffffffffffffffffffffffffffffffffffff16908060030160009054906101000a900473ffffffffffffffffffffffffffffffffffffffff16908060040154908060050154908060060154908060070180546109f290613765565b80601f0160208091040260200160405190810160405280929190818152602001828054610a1e90613765565b8015610a6b5780601f10610a4057610100808354040283529160200191610a6b565b820191906000526020600020905b815481529060010190602001808311610a4e57829003601f168201915b5050505050908060080160009054906101000a900473ffffffffffffffffffffffffffffffffffffffff16908060090160009054906101000a900473ffffffffffffffffffffffffffffffffffffffff169080600a015490508b565b600073ffffffffffffffffffffffffffffffffffffffff168273ffffffffffffffffffffffffffffffffffffffff161415610b0157600080fd5b8173ffffffffffffffffffffffffffffffffffffffff166323b872dd3330846040518463ffffffff1660e01b8152600401610b3e939291906131c6565b602060405180830381600087803b158015610b5857600080fd5b505af1158015610b6c573d6000803e3d6000fd5b505050506040513d601f19601f82011682018060405250810190610b909190612d51565b610b9957600080fd5b80600360008473ffffffffffffffffffffffffffffffffffffffff1673ffffffffffffffffffffffffffffffffffffffff16815260200190815260200160002060003373ffffffffffffffffffffffffffffffffffffffff1673ffffffffffffffffffffffffffffffffffffffff16815260200190815260200160002054610c2191906135f7565b600360008473ffffffffffffffffffffffffffffffffffffffff1673ffffffffffffffffffffffffffffffffffffffff16815260200190815260200160002060003373ffffffffffffffffffffffffffffffffffffffff1673ffffffffffffffffffffffffffffffffffffffff168152602001908152602001600020819055507fdcbc1c05240f31ff3ad067ef1ee35ce4997762752e3a095284754544f4c709d7823383600360008773ffffffffffffffffffffffffffffffffffffffff1673ffffffffffffffffffffffffffffffffffffffff16815260200190815260200160002060003373ffffffffffffffffffffffffffffffffffffffff1673ffffffffffffffffffffffffffffffffffffffff16815260200190815260200160002054604051610d5294939291906131fd565b60405180910390a15050565b600060046000838152602001908152602001600020905080600001548214610dbb576040517f08c379a0000000000000000000000000000000000000000000000000000000008152600401610db290613326565b60405180910390fd5b8060020160009054906101000a900473ffffffffffffffffffffffffffffffffffffffff1673ffffffffffffffffffffffffffffffffffffffff163373ffffffffffffffffffffffffffffffffffffffff1614610e1757600080fd5b600015156005600084815260200190815260200160002060009054906101000a900460ff16151514610e7e576040517f08c379a0000000000000000000000000000000000000000000000000000000008152600401610e7590613306565b60405180910390fd5b600015156006600084815260200190815260200160002060009054906101000a900460ff16151514610ee5576040517f08c379a0000000000000000000000000000000000000000000000000000000008152600401610edc906132a6565b60405180910390fd5b60016005600084815260200190815260200160002060006101000a81548160ff02191690831515021790555080600601548160040154610f2591906135f7565b600360008360010160009054906101000a900473ffffffffffffffffffffffffffffffffffffffff1673ffffffffffffffffffffffffffffffffffffffff1673ffffffffffffffffffffffffffffffffffffffff16815260200190815260200160002060003373ffffffffffffffffffffffffffffffffffffffff1673ffffffffffffffffffffffffffffffffffffffff1681526020019081526020016000206000828254610fd491906135f7565b9250508190555080600601548160040154610fef91906135f7565b600360008360010160009054906101000a900473ffffffffffffffffffffffffffffffffffffffff1673ffffffffffffffffffffffffffffffffffffffff1673ffffffffffffffffffffffffffffffffffffffff16815260200190815260200160002060003073ffffffffffffffffffffffffffffffffffffffff1673ffffffffffffffffffffffffffffffffffffffff168152602001908152602001600020600082825461109e91906136a7565b925050819055507f7d48b67b2a7fda1d27ff7aa145b5c1c6ddb732a8148ad427948a878fd5d797bb81600001548260010160009054906101000a900473ffffffffffffffffffffffffffffffffffffffff168360020160009054906101000a900473ffffffffffffffffffffffffffffffffffffffff168460030160009054906101000a900473ffffffffffffffffffffffffffffffffffffffff16856004015486600501548760060154886007018960080160009054906101000a900473ffffffffffffffffffffffffffffffffffffffff168a60090160009054906101000a900473ffffffffffffffffffffffffffffffffffffffff16426040516111af9b9a999897969594939291906134b3565b60405180910390a15050565b60025481565b6003602052816000526040600020602052806000526040600020600091509150505481565b60076020528060005260406000206000915054906101000a900460ff1681565b600060046000838152602001908152602001600020905080600001548214611263576040517f08c379a000000000000000000000000000000000000000000000000000000000815260040161125a90613326565b60405180910390fd5b600015156006600084815260200190815260200160002060009054906101000a900460ff161515146112ca576040517f08c379a00000000000000000000000000000000000000000000000000000000081526004016112c1906132a6565b60405180910390fd5b600015156005600084815260200190815260200160002060009054906101000a900460ff16151514611331576040517f08c379a000000000000000000000000000000000000000000000000000000000815260040161132890613306565b60405180910390fd5b8060060154816005015461134591906135f7565b600360008360010160009054906101000a900473ffffffffffffffffffffffffffffffffffffffff1673ffffffffffffffffffffffffffffffffffffffff1673ffffffffffffffffffffffffffffffffffffffff16815260200190815260200160002060003373ffffffffffffffffffffffffffffffffffffffff1673ffffffffffffffffffffffffffffffffffffffff168152602001908152602001600020541015611427576040517f08c379a000000000000000000000000000000000000000000000000000000000815260040161141e906132c6565b60405180910390fd5b600073ffffffffffffffffffffffffffffffffffffffff168160030160009054906101000a900473ffffffffffffffffffffffffffffffffffffffff1673ffffffffffffffffffffffffffffffffffffffff1614806114d557503373ffffffffffffffffffffffffffffffffffffffff168160030160009054906101000a900473ffffffffffffffffffffffffffffffffffffffff1673ffffffffffffffffffffffffffffffffffffffff16145b611514576040517f08c379a000000000000000000000000000000000000000000000000000000000815260040161150b906133a6565b60405180910390fd5b600073ffffffffffffffffffffffffffffffffffffffff168160030160009054906101000a900473ffffffffffffffffffffffffffffffffffffffff1673ffffffffffffffffffffffffffffffffffffffff1614156115b157338160030160006101000a81548173ffffffffffffffffffffffffffffffffffffffff021916908373ffffffffffffffffffffffffffffffffffffffff1602179055505b806006015481600501546115c591906135f7565b600360008360010160009054906101000a900473ffffffffffffffffffffffffffffffffffffffff1673ffffffffffffffffffffffffffffffffffffffff1673ffffffffffffffffffffffffffffffffffffffff16815260200190815260200160002060003373ffffffffffffffffffffffffffffffffffffffff1673ffffffffffffffffffffffffffffffffffffffff168152602001908152602001600020600082825461167491906136a7565b925050819055508060060154816005015461168f91906135f7565b600360008360010160009054906101000a900473ffffffffffffffffffffffffffffffffffffffff1673ffffffffffffffffffffffffffffffffffffffff1673ffffffffffffffffffffffffffffffffffffffff16815260200190815260200160002060003073ffffffffffffffffffffffffffffffffffffffff1673ffffffffffffffffffffffffffffffffffffffff168152602001908152602001600020600082825461173e91906135f7565b9250508190555060016006600084815260200190815260200160002060006101000a81548160ff0219169083151502179055507f0c696602a85be43a0736e6d6ba84ae8a1eb96d8750474312e4c286ea73225fa881600001548260010160009054906101000a900473ffffffffffffffffffffffffffffffffffffffff168360020160009054906101000a900473ffffffffffffffffffffffffffffffffffffffff1633856004015486600501548760060154886007018960080160009054906101000a900473ffffffffffffffffffffffffffffffffffffffff168a60090160009054906101000a900473ffffffffffffffffffffffffffffffffffffffff16426040516118579b9a999897969594939291906134b3565b60405180910390a15050565b61186b6129e7565b73ffffffffffffffffffffffffffffffffffffffff166118896118eb565b73ffffffffffffffffffffffffffffffffffffffff16146118df576040517f08c379a00000000000000000000000000000000000000000000000000000000081526004016118d690613386565b60405180910390fd5b6118e960006129ef565b565b60008060009054906101000a900473ffffffffffffffffffffffffffffffffffffffff16905090565b8373ffffffffffffffffffffffffffffffffffffffff163373ffffffffffffffffffffffffffffffffffffffff161415611983576040517f08c379a000000000000000000000000000000000000000000000000000000000815260040161197a90613346565b60405180910390fd5b6002548361199191906135f7565b600360008773ffffffffffffffffffffffffffffffffffffffff1673ffffffffffffffffffffffffffffffffffffffff16815260200190815260200160002060003373ffffffffffffffffffffffffffffffffffffffff1673ffffffffffffffffffffffffffffffffffffffff168152602001908152602001600020541015611a4f576040517f08c379a0000000000000000000000000000000000000000000000000000000008152600401611a46906132c6565b60405180910390fd5b60025483611a5d91906135f7565b600360008773ffffffffffffffffffffffffffffffffffffffff1673ffffffffffffffffffffffffffffffffffffffff16815260200190815260200160002060003373ffffffffffffffffffffffffffffffffffffffff1673ffffffffffffffffffffffffffffffffffffffff1681526020019081526020016000206000828254611ae891906136a7565b9250508190555060025483611afd91906135f7565b600360008773ffffffffffffffffffffffffffffffffffffffff1673ffffffffffffffffffffffffffffffffffffffff16815260200190815260200160002060003073ffffffffffffffffffffffffffffffffffffffff1673ffffffffffffffffffffffffffffffffffffffff1681526020019081526020016000206000828254611b8891906135f7565b92505081905550611b996001612ab3565b604051806101600160405280611baf6001612ac9565b81526020018673ffffffffffffffffffffffffffffffffffffffff1681526020013373ffffffffffffffffffffffffffffffffffffffff1681526020018573ffffffffffffffffffffffffffffffffffffffff1681526020018481526020018381526020016002548152602001828152602001600073ffffffffffffffffffffffffffffffffffffffff168152602001600073ffffffffffffffffffffffffffffffffffffffff1681526020014281525060046000611c6e6001612ac9565b81526020019081526020016000206000820151816000015560208201518160010160006101000a81548173ffffffffffffffffffffffffffffffffffffffff021916908373ffffffffffffffffffffffffffffffffffffffff16021790555060408201518160020160006101000a81548173ffffffffffffffffffffffffffffffffffffffff021916908373ffffffffffffffffffffffffffffffffffffffff16021790555060608201518160030160006101000a81548173ffffffffffffffffffffffffffffffffffffffff021916908373ffffffffffffffffffffffffffffffffffffffff1602179055506080820151816004015560a0820151816005015560c0820151816006015560e0820151816007019080519060200190611d95929190612ad7565b506101008201518160080160006101000a81548173ffffffffffffffffffffffffffffffffffffffff021916908373ffffffffffffffffffffffffffffffffffffffff1602179055506101208201518160090160006101000a81548173ffffffffffffffffffffffffffffffffffffffff021916908373ffffffffffffffffffffffffffffffffffffffff16021790555061014082015181600a01559050507ffdb6d2cd59034da6c851ed9a80e71f59b3f03ac26667354e1ac94a115bcacb76611e5f6001612ac9565b86338787876002548860008042604051611e839b9a99989796959493929190613401565b60405180910390a15050505050565b600073ffffffffffffffffffffffffffffffffffffffff168273ffffffffffffffffffffffffffffffffffffffff161415611ecc57600080fd5b80600360008473ffffffffffffffffffffffffffffffffffffffff1673ffffffffffffffffffffffffffffffffffffffff16815260200190815260200160002060003373ffffffffffffffffffffffffffffffffffffffff1673ffffffffffffffffffffffffffffffffffffffff168152602001908152602001600020541015611f5557600080fd5b80600360008473ffffffffffffffffffffffffffffffffffffffff1673ffffffffffffffffffffffffffffffffffffffff16815260200190815260200160002060003373ffffffffffffffffffffffffffffffffffffffff1673ffffffffffffffffffffffffffffffffffffffff16815260200190815260200160002054611fdd91906136a7565b600360008473ffffffffffffffffffffffffffffffffffffffff1673ffffffffffffffffffffffffffffffffffffffff16815260200190815260200160002060003373ffffffffffffffffffffffffffffffffffffffff1673ffffffffffffffffffffffffffffffffffffffff168152602001908152602001600020819055508173ffffffffffffffffffffffffffffffffffffffff1663a9059cbb33836040518363ffffffff1660e01b8152600401612098929190613242565b602060405180830381600087803b1580156120b257600080fd5b505af11580156120c6573d6000803e3d6000fd5b505050506040513d601f19601f820116820180604052508101906120ea9190612d51565b6120f357600080fd5b7ff341246adaac6f497bc2a656f546ab9e182111d630394f0c57c710a59a2cb567823383600360008773ffffffffffffffffffffffffffffffffffffffff1673ffffffffffffffffffffffffffffffffffffffff16815260200190815260200160002060003373ffffffffffffffffffffffffffffffffffffffff1673ffffffffffffffffffffffffffffffffffffffff168152602001908152602001600020546040516121a494939291906131fd565b60405180910390a15050565b60056020528060005260406000206000915054906101000a900460ff1681565b60066020528060005260406000206000915054906101000a900460ff1681565b6121f86129e7565b73ffffffffffffffffffffffffffffffffffffffff166122166118eb565b73ffffffffffffffffffffffffffffffffffffffff161461226c576040517f08c379a000000000000000000000000000000000000000000000000000000000815260040161226390613386565b60405180910390fd5b600073ffffffffffffffffffffffffffffffffffffffff168173ffffffffffffffffffffffffffffffffffffffff1614156122dc576040517f08c379a00000000000000000000000000000000000000000000000000000000081526004016122d390613286565b60405180910390fd5b6122e5816129ef565b50565b6000600360008473ffffffffffffffffffffffffffffffffffffffff1673ffffffffffffffffffffffffffffffffffffffff16815260200190815260200160002060008373ffffffffffffffffffffffffffffffffffffffff1673ffffffffffffffffffffffffffffffffffffffff16815260200190815260200160002054905092915050565b600060046000838152602001908152602001600020905060028160060154612397919061364d565b816005015482600401546123ab91906135f7565b6123b591906135f7565b600360008360010160009054906101000a900473ffffffffffffffffffffffffffffffffffffffff1673ffffffffffffffffffffffffffffffffffffffff1673ffffffffffffffffffffffffffffffffffffffff16815260200190815260200160002060003073ffffffffffffffffffffffffffffffffffffffff1673ffffffffffffffffffffffffffffffffffffffff168152602001908152602001600020600082825461246491906136a7565b9250508190555060016007600084815260200190815260200160002060006101000a81548160ff0219169083151502179055508060090160009054906101000a900473ffffffffffffffffffffffffffffffffffffffff1673ffffffffffffffffffffffffffffffffffffffff168160020160009054906101000a900473ffffffffffffffffffffffffffffffffffffffff1673ffffffffffffffffffffffffffffffffffffffff1614156126f45780600601548160050154826004015461252c91906135f7565b61253691906135f7565b600360008360010160009054906101000a900473ffffffffffffffffffffffffffffffffffffffff1673ffffffffffffffffffffffffffffffffffffffff1673ffffffffffffffffffffffffffffffffffffffff16815260200190815260200160002060008360020160009054906101000a900473ffffffffffffffffffffffffffffffffffffffff1673ffffffffffffffffffffffffffffffffffffffff1673ffffffffffffffffffffffffffffffffffffffff168152602001908152602001600020600082825461260991906135f7565b925050819055508060060154600360008360010160009054906101000a900473ffffffffffffffffffffffffffffffffffffffff1673ffffffffffffffffffffffffffffffffffffffff1673ffffffffffffffffffffffffffffffffffffffff16815260200190815260200160002060008360030160009054906101000a900473ffffffffffffffffffffffffffffffffffffffff1673ffffffffffffffffffffffffffffffffffffffff1673ffffffffffffffffffffffffffffffffffffffff16815260200190815260200160002060008282546126e891906135f7565b925050819055506128d1565b8060060154600360008360010160009054906101000a900473ffffffffffffffffffffffffffffffffffffffff1673ffffffffffffffffffffffffffffffffffffffff1673ffffffffffffffffffffffffffffffffffffffff16815260200190815260200160002060008360020160009054906101000a900473ffffffffffffffffffffffffffffffffffffffff1673ffffffffffffffffffffffffffffffffffffffff1673ffffffffffffffffffffffffffffffffffffffff16815260200190815260200160002060008282546127cc91906135f7565b925050819055508060060154816005015482600401546127ec91906135f7565b6127f691906135f7565b600360008360010160009054906101000a900473ffffffffffffffffffffffffffffffffffffffff1673ffffffffffffffffffffffffffffffffffffffff1673ffffffffffffffffffffffffffffffffffffffff16815260200190815260200160002060008360030160009054906101000a900473ffffffffffffffffffffffffffffffffffffffff1673ffffffffffffffffffffffffffffffffffffffff1673ffffffffffffffffffffffffffffffffffffffff16815260200190815260200160002060008282546128c991906135f7565b925050819055505b7fd223cc61778bec886a8342bce289ef9009b3be72b19b67ccfab4a4ae4c55e85d81600001548260010160009054906101000a900473ffffffffffffffffffffffffffffffffffffffff168360020160009054906101000a900473ffffffffffffffffffffffffffffffffffffffff168460030160009054906101000a900473ffffffffffffffffffffffffffffffffffffffff16856004015486600501548760060154886007018960080160009054906101000a900473ffffffffffffffffffffffffffffffffffffffff168a60090160009054906101000a900473ffffffffffffffffffffffffffffffffffffffff16426040516129db9b9a999897969594939291906134b3565b60405180910390a15050565b600033905090565b60008060009054906101000a900473ffffffffffffffffffffffffffffffffffffffff169050816000806101000a81548173ffffffffffffffffffffffffffffffffffffffff021916908373ffffffffffffffffffffffffffffffffffffffff1602179055508173ffffffffffffffffffffffffffffffffffffffff168173ffffffffffffffffffffffffffffffffffffffff167f8be0079c531659141344cd1fd0a4f28419497f9722a3daafe3b4186f6b6457e060405160405180910390a35050565b6001816000016000828254019250508190555050565b600081600001549050919050565b828054612ae390613765565b90600052602060002090601f016020900481019282612b055760008555612b4c565b82601f10612b1e57805160ff1916838001178555612b4c565b82800160010185558215612b4c579182015b82811115612b4b578251825591602001919060010190612b30565b5b509050612b599190612b5d565b5090565b5b80821115612b76576000816000905550600101612b5e565b5090565b6000612b8d612b8884613596565b613565565b905082815260208101848484011115612ba557600080fd5b612bb0848285613723565b509392505050565b600081359050612bc781613835565b92915050565b600081519050612bdc8161384c565b92915050565b600082601f830112612bf357600080fd5b8135612c03848260208601612b7a565b91505092915050565b600081359050612c1b81613863565b92915050565b600060208284031215612c3357600080fd5b6000612c4184828501612bb8565b91505092915050565b60008060408385031215612c5d57600080fd5b6000612c6b85828601612bb8565b9250506020612c7c85828601612bb8565b9150509250929050565b600080600080600060a08688031215612c9e57600080fd5b6000612cac88828901612bb8565b9550506020612cbd88828901612bb8565b9450506040612cce88828901612c0c565b9350506060612cdf88828901612c0c565b925050608086013567ffffffffffffffff811115612cfc57600080fd5b612d0888828901612be2565b9150509295509295909350565b60008060408385031215612d2857600080fd5b6000612d3685828601612bb8565b9250506020612d4785828601612c0c565b9150509250929050565b600060208284031215612d6357600080fd5b6000612d7184828501612bcd565b91505092915050565b600060208284031215612d8c57600080fd5b6000612d9a84828501612c0c565b91505092915050565b60008060408385031215612db657600080fd5b6000612dc485828601612c0c565b9250506020612dd585828601612bb8565b9150509250929050565b612de8816136db565b82525050565b612df7816136ed565b82525050565b6000612e08826135db565b612e1281856135e6565b9350612e22818560208601613732565b612e2b81613824565b840191505092915050565b60008154612e4381613765565b612e4d81866135e6565b94506001821660008114612e685760018114612e7a57612ead565b60ff1983168652602086019350612ead565b612e83856135c6565b60005b83811015612ea557815481890152600182019150602081019050612e86565b808801955050505b50505092915050565b6000612ec36026836135e6565b91507f4f776e61626c653a206e6577206f776e657220697320746865207a65726f206160008301527f64647265737300000000000000000000000000000000000000000000000000006020830152604082019050919050565b6000612f296014836135e6565b91507f62657420616c72656164792061636365707465640000000000000000000000006000830152602082019050919050565b6000612f696013836135e6565b91507f696e737566666963656e742062616c616e6365000000000000000000000000006000830152602082019050919050565b6000612fa96014836135e6565b91507f626574206e6f74206163636570746564207965740000000000000000000000006000830152602082019050919050565b6000612fe96015836135e6565b91507f62657420616c72656164792063616e63656c6c656400000000000000000000006000830152602082019050919050565b60006130296012836135e6565b91507f62657420646f6573206e6f7420657869737400000000000000000000000000006000830152602082019050919050565b60006130696016836135e6565b91507f74616b65722063616e6e6f742062652073656e646572000000000000000000006000830152602082019050919050565b60006130a9601c836135e6565b91507f73656e646572206973206e6f74206d616b6572206f722074616b6572000000006000830152602082019050919050565b60006130e96020836135e6565b91507f4f776e61626c653a2063616c6c6572206973206e6f7420746865206f776e65726000830152602082019050919050565b60006131296013836135e6565b91507f74616b65722061646472657373206572726f72000000000000000000000000006000830152602082019050919050565b60006131696012836135e6565b91507f62657420616c726561647920636c6f73656400000000000000000000000000006000830152602082019050919050565b6131a581613719565b82525050565b60006020820190506131c06000830184612ddf565b92915050565b60006060820190506131db6000830186612ddf565b6131e86020830185612ddf565b6131f5604083018461319c565b949350505050565b60006080820190506132126000830187612ddf565b61321f6020830186612ddf565b61322c604083018561319c565b613239606083018461319c565b95945050505050565b60006040820190506132576000830185612ddf565b613264602083018461319c565b9392505050565b60006020820190506132806000830184612dee565b92915050565b6000602082019050818103600083015261329f81612eb6565b9050919050565b600060208201905081810360008301526132bf81612f1c565b9050919050565b600060208201905081810360008301526132df81612f5c565b9050919050565b600060208201905081810360008301526132ff81612f9c565b9050919050565b6000602082019050818103600083015261331f81612fdc565b9050919050565b6000602082019050818103600083015261333f8161301c565b9050919050565b6000602082019050818103600083015261335f8161305c565b9050919050565b6000602082019050818103600083015261337f8161309c565b9050919050565b6000602082019050818103600083015261339f816130dc565b9050919050565b600060208201905081810360008301526133bf8161311c565b9050919050565b600060208201905081810360008301526133df8161315c565b9050919050565b60006020820190506133fb600083018461319c565b92915050565b600061016082019050613417600083018e61319c565b613424602083018d612ddf565b613431604083018c612ddf565b61343e606083018b612ddf565b61344b608083018a61319c565b61345860a083018961319c565b61346560c083018861319c565b81810360e08301526134778187612dfd565b9050613487610100830186612ddf565b613495610120830185612ddf565b6134a361014083018461319c565b9c9b505050505050505050505050565b6000610160820190506134c9600083018e61319c565b6134d6602083018d612ddf565b6134e3604083018c612ddf565b6134f0606083018b612ddf565b6134fd608083018a61319c565b61350a60a083018961319c565b61351760c083018861319c565b81810360e08301526135298187612e36565b9050613539610100830186612ddf565b613547610120830185612ddf565b61355561014083018461319c565b9c9b505050505050505050505050565b6000604051905081810181811067ffffffffffffffff8211171561358c5761358b6137f5565b5b8060405250919050565b600067ffffffffffffffff8211156135b1576135b06137f5565b5b601f19601f8301169050602081019050919050565b60008190508160005260206000209050919050565b600081519050919050565b600082825260208201905092915050565b600061360282613719565b915061360d83613719565b9250827fffffffffffffffffffffffffffffffffffffffffffffffffffffffffffffffff0382111561364257613641613797565b5b828201905092915050565b600061365882613719565b915061366383613719565b9250817fffffffffffffffffffffffffffffffffffffffffffffffffffffffffffffffff048311821515161561369c5761369b613797565b5b828202905092915050565b60006136b282613719565b91506136bd83613719565b9250828210156136d0576136cf613797565b5b828203905092915050565b60006136e6826136f9565b9050919050565b60008115159050919050565b600073ffffffffffffffffffffffffffffffffffffffff82169050919050565b6000819050919050565b82818337600083830152505050565b60005b83811015613750578082015181840152602081019050613735565b8381111561375f576000848401525b50505050565b6000600282049050600182168061377d57607f821691505b60208210811415613791576137906137c6565b5b50919050565b7f4e487b7100000000000000000000000000000000000000000000000000000000600052601160045260246000fd5b7f4e487b7100000000000000000000000000000000000000000000000000000000600052602260045260246000fd5b7f4e487b7100000000000000000000000000000000000000000000000000000000600052604160045260246000fd5b6000601f19601f8301169050919050565b61383e816136db565b811461384957600080fd5b50565b613855816136ed565b811461386057600080fd5b50565b61386c81613719565b811461387757600080fd5b5056fea264697066735822122044a09d87d4ff8233631173083148bed230d14391a2ab02b08709dd8af7d96b8a64736f6c63430008000033",
  "immutableReferences": {},
  "source": "// SPDX-License-Identifier: MIT\npragma solidity >=0.4.22 <0.9.0;\n\nimport \"@openzeppelin/contracts/access/Ownable.sol\";\nimport \"@openzeppelin/contracts/utils/Counters.sol\";\nimport './Token.sol';\n\ncontract Exchange is Ownable {\n  using Counters for Counters.Counter;\n  Counters.Counter private _betCount;\n\n  uint256 public depositAmount; // returned after bet closed - incentive to close bet\n  address constant ADDRESS_0X0 = address(0); // blank address\n\n  mapping(address => mapping(address => uint256)) public tokens;\n  mapping(uint256 => _Bet) public bets;\n  mapping(uint256 => bool) public cancelled;\n  mapping(uint256 => bool) public accepted;\n  mapping(uint256 => bool) public closed;\n\n  event Deposit(address token, address user, uint256 amount, uint256 balance);\n  event Withdraw(address token, address user, uint256 amount, uint256 balance);\n  event BetCreated(uint256 id, address token, address maker, address taker, uint256 amountMaker, uint256 amountTaker, uint256 depositAmount, string name, address winnerMaker, address winnerTaker, uint256 timestamp);\n  event BetCancelled(uint256 id, address token, address maker, address taker, uint256 amountMaker, uint256 amountTaker, uint256 depositAmount, string name, address winnerMaker, address winnerTaker, uint256 timestamp);\n  event BetAccepted(uint256 id, address token, address maker, address taker, uint256 amountMaker, uint256 amountTaker, uint256 depositAmount, string name, address winnerMaker, address winnerTaker, uint256 timestamp);\n  event WinnerSubmitted(uint256 id, address token, address maker, address taker, uint256 amountMaker, uint256 amountTaker, uint256 depositAmount, string name, address winnerMaker, address winnerTaker, uint256 timestamp);\n  event BetClosed(uint256 id, address token, address maker, address taker, uint256 amountMaker, uint256 amountTaker, uint256 depositAmount, string name, address winnerMaker, address winnerTaker, uint256 timestamp);\n\n  struct _Bet {\n    uint256 id;\n    address token;\n    address maker;\n    address taker;\n    uint256 amountMaker;\n    uint256 amountTaker;\n    uint256 amountDeposit;\n    string name;\n    address winnerMaker;\n    address winnerTaker;\n    uint256 timestamp;\n    }\n\n  constructor (uint256 _depositAmount) {\n    depositAmount = _depositAmount;\n  }\n\n\n  function depositToken(address _token, uint256 _amount) public {\n    require(_token != ADDRESS_0X0);\n    require(Token(_token).transferFrom(msg.sender, address(this), _amount));\n    tokens[_token][msg.sender] = tokens[_token][msg.sender] + _amount;\n    emit Deposit(_token, msg.sender, _amount, tokens[_token][msg.sender]);\n  }\n\n  function withdrawToken(address _token, uint256 _amount) public {\n    require(_token != ADDRESS_0X0);\n    require(tokens[_token][msg.sender] >= _amount);\n    tokens[_token][msg.sender] = tokens[_token][msg.sender] - _amount;\n    require(Token(_token).transfer(msg.sender, _amount));\n    emit Withdraw(_token, msg.sender, _amount, tokens[_token][msg.sender]);\n  }\n\n  function balanceOf(address _token, address _user) public view returns(uint256 _balance) {\n      return tokens[_token][_user];\n  }\n  \n  function createBet(address _token, address _taker, uint256 _amountMaker, uint256 _amountTaker, string memory _name) public {\n    require(msg.sender != _taker, 'taker cannot be sender');\n    require(tokens[_token][msg.sender] >= (_amountMaker + depositAmount), 'insufficent balance');\n\n    tokens[_token][msg.sender] -= (_amountMaker + depositAmount);\n    tokens[_token][address(this)] += (_amountMaker + depositAmount);\n\n    _betCount.increment();\n    bets[_betCount.current()] = _Bet(_betCount.current(), _token, msg.sender, _taker, _amountMaker, _amountTaker, depositAmount, _name, ADDRESS_0X0, ADDRESS_0X0, block.timestamp);\n\n    emit BetCreated(_betCount.current(), _token, msg.sender, _taker, _amountMaker, _amountTaker, depositAmount, _name, ADDRESS_0X0, ADDRESS_0X0, block.timestamp);\n  }\n\n  function cancelBet(uint256 _id) public {\n    _Bet storage _bet = bets[_id];\n    require(_id == _bet.id, 'bet does not exist');\n    require(msg.sender == address(_bet.maker));\n    require(cancelled[_id] == false, 'bet already cancelled');\n    require(accepted[_id] == false, 'bet already accepted');\n    \n    cancelled[_id] = true;\n\n    tokens[_bet.token][msg.sender] += (_bet.amountMaker + _bet.amountDeposit); // options: add fees or keep deposit\n    tokens[_bet.token][address(this)] -= (_bet.amountMaker + _bet.amountDeposit);\n\n    emit BetCancelled(_bet.id, _bet.token, _bet.maker, _bet.taker, _bet.amountMaker, _bet.amountTaker, _bet.amountDeposit, _bet.name, _bet.winnerMaker, _bet.winnerTaker, block.timestamp);\n  }\n\n  function acceptBet(uint256 _id) public {\n    _Bet storage _bet = bets[_id];\n    require(_id == _bet.id, 'bet does not exist');\n    require(accepted[_id] == false, 'bet already accepted');\n    require(cancelled[_id] == false, 'bet already cancelled');\n    require(tokens[_bet.token][msg.sender] >= (_bet.amountTaker + _bet.amountDeposit), 'insufficent balance');\n    require(_bet.taker == ADDRESS_0X0 || _bet.taker == msg.sender, 'taker address error');\n\n    if (_bet.taker == ADDRESS_0X0) {\n      _bet.taker = msg.sender;\n    }\n\n    tokens[_bet.token][msg.sender] -= (_bet.amountTaker + _bet.amountDeposit);\n    tokens[_bet.token][address(this)] += (_bet.amountTaker + _bet.amountDeposit);\n    accepted[_id] = true;\n    emit BetAccepted(_bet.id, _bet.token, _bet.maker, msg.sender, _bet.amountMaker, _bet.amountTaker, _bet.amountDeposit, _bet.name, _bet.winnerMaker, _bet.winnerTaker, block.timestamp);\n  }\n\n  function submitWinner(uint256 _id, address _winner) public {\n    _Bet storage _bet = bets[_id];\n    require(_id == _bet.id, 'bet does not exist');\n    require(cancelled[_id] == false, 'bet already cancelled');\n    require(accepted[_id] == true, 'bet not accepted yet');\n    require(closed[_id] == false, 'bet already closed');\n    require(_bet.maker == msg.sender || _bet.taker == msg.sender, 'sender is not maker or taker');\n\n    if (msg.sender == _bet.maker) {\n      _bet.winnerMaker = _winner;\n    }\n\n    if (msg.sender == _bet.taker) {\n      _bet.winnerTaker = _winner;\n    }\n\n    emit WinnerSubmitted(_bet.id, _bet.token, _bet.maker, _bet.taker, _bet.amountMaker, _bet.amountTaker, _bet.amountDeposit, _bet.name, _bet.winnerMaker, _bet.winnerTaker, block.timestamp);\n\n    if (_bet.winnerMaker != ADDRESS_0X0 && _bet.winnerTaker != ADDRESS_0X0 && _bet.winnerMaker == _bet.winnerTaker) {\n      _closeBet(_id);\n    }\n  }\n\n  function _closeBet(uint256 _id) private {\n    _Bet storage _bet = bets[_id];\n    tokens[_bet.token][address(this)] -= (_bet.amountMaker + _bet.amountTaker + (_bet.amountDeposit * 2));\n    closed[_id] = true;\n\n    if (_bet.maker == _bet.winnerTaker) {\n      tokens[_bet.token][_bet.maker] += (_bet.amountMaker + _bet.amountTaker + _bet.amountDeposit);\n      tokens[_bet.token][_bet.taker] += _bet.amountDeposit;\n    } else {\n      tokens[_bet.token][_bet.maker] += _bet.amountDeposit;\n      tokens[_bet.token][_bet.taker] += (_bet.amountMaker + _bet.amountTaker + _bet.amountDeposit);\n    } \n\n    emit BetClosed(_bet.id, _bet.token, _bet.maker, _bet.taker, _bet.amountMaker, _bet.amountTaker, _bet.amountDeposit, _bet.name, _bet.winnerMaker, _bet.winnerTaker, block.timestamp);\n  }\n}",
  "sourcePath": "/Users/andrewmlevy/Documents/blockchain/4_portfolio_projects/simple-betting-app/src/contracts/Exchange.sol",
  "compiler": {
    "name": "solc",
    "version": "0.8.0+commit.c7dfd78e.Emscripten.clang"
  },
  "schemaVersion": "3.4.3",
  "updatedAt": "2021-12-24T19:47:54.574Z",
  "networkType": "ethereum",
  "devdoc": {
    "kind": "dev",
    "methods": {
      "owner()": {
        "details": "Returns the address of the current owner."
      },
      "renounceOwnership()": {
        "details": "Leaves the contract without owner. It will not be possible to call `onlyOwner` functions anymore. Can only be called by the current owner. NOTE: Renouncing ownership will leave the contract without an owner, thereby removing any functionality that is only available to the owner."
      },
      "transferOwnership(address)": {
        "details": "Transfers ownership of the contract to a new account (`newOwner`). Can only be called by the current owner."
      }
    },
    "version": 1
  },
  "userdoc": {
    "kind": "user",
    "methods": {},
    "version": 1
  }
}