{
  "contractName": "Token",
  "abi": [
    {
      "inputs": [
        {
          "internalType": "string",
          "name": "_name",
          "type": "string"
        },
        {
          "internalType": "string",
          "name": "_symbol",
          "type": "string"
        },
        {
          "internalType": "uint256",
          "name": "_exchangeRate",
          "type": "uint256"
        }
      ],
      "stateMutability": "nonpayable",
      "type": "constructor"
    },
    {
      "anonymous": false,
      "inputs": [
        {
          "indexed": true,
          "internalType": "address",
          "name": "owner",
          "type": "address"
        },
        {
          "indexed": true,
          "internalType": "address",
          "name": "spender",
          "type": "address"
        },
        {
          "indexed": false,
          "internalType": "uint256",
          "name": "value",
          "type": "uint256"
        }
      ],
      "name": "Approval",
      "type": "event"
    },
    {
      "anonymous": false,
      "inputs": [
        {
          "indexed": false,
          "internalType": "uint256",
          "name": "updatedExchangeRate",
          "type": "uint256"
        }
      ],
      "name": "ExchangeRateUpdated",
      "type": "event"
    },
    {
      "anonymous": false,
      "inputs": [
        {
          "indexed": true,
          "internalType": "address",
          "name": "previousOwner",
          "type": "address"
        },
        {
          "indexed": true,
          "internalType": "address",
          "name": "newOwner",
          "type": "address"
        }
      ],
      "name": "OwnershipTransferred",
      "type": "event"
    },
    {
      "anonymous": false,
      "inputs": [
        {
          "indexed": false,
          "internalType": "uint256",
          "name": "id",
          "type": "uint256"
        },
        {
          "indexed": false,
          "internalType": "uint256",
          "name": "numberTokens",
          "type": "uint256"
        },
        {
          "indexed": false,
          "internalType": "uint256",
          "name": "exchangeRate",
          "type": "uint256"
        }
      ],
      "name": "Purchase",
      "type": "event"
    },
    {
      "anonymous": false,
      "inputs": [
        {
          "indexed": true,
          "internalType": "address",
          "name": "from",
          "type": "address"
        },
        {
          "indexed": true,
          "internalType": "address",
          "name": "to",
          "type": "address"
        },
        {
          "indexed": false,
          "internalType": "uint256",
          "name": "value",
          "type": "uint256"
        }
      ],
      "name": "Transfer",
      "type": "event"
    },
    {
      "inputs": [
        {
          "internalType": "address",
          "name": "owner",
          "type": "address"
        },
        {
          "internalType": "address",
          "name": "spender",
          "type": "address"
        }
      ],
      "name": "allowance",
      "outputs": [
        {
          "internalType": "uint256",
          "name": "",
          "type": "uint256"
        }
      ],
      "stateMutability": "view",
      "type": "function",
      "constant": true
    },
    {
      "inputs": [
        {
          "internalType": "address",
          "name": "spender",
          "type": "address"
        },
        {
          "internalType": "uint256",
          "name": "amount",
          "type": "uint256"
        }
      ],
      "name": "approve",
      "outputs": [
        {
          "internalType": "bool",
          "name": "",
          "type": "bool"
        }
      ],
      "stateMutability": "nonpayable",
      "type": "function"
    },
    {
      "inputs": [
        {
          "internalType": "address",
          "name": "account",
          "type": "address"
        }
      ],
      "name": "balanceOf",
      "outputs": [
        {
          "internalType": "uint256",
          "name": "",
          "type": "uint256"
        }
      ],
      "stateMutability": "view",
      "type": "function",
      "constant": true
    },
    {
      "inputs": [],
      "name": "decimals",
      "outputs": [
        {
          "internalType": "uint8",
          "name": "",
          "type": "uint8"
        }
      ],
      "stateMutability": "view",
      "type": "function",
      "constant": true
    },
    {
      "inputs": [
        {
          "internalType": "address",
          "name": "spender",
          "type": "address"
        },
        {
          "internalType": "uint256",
          "name": "subtractedValue",
          "type": "uint256"
        }
      ],
      "name": "decreaseAllowance",
      "outputs": [
        {
          "internalType": "bool",
          "name": "",
          "type": "bool"
        }
      ],
      "stateMutability": "nonpayable",
      "type": "function"
    },
    {
      "inputs": [],
      "name": "exchangeRate",
      "outputs": [
        {
          "internalType": "uint256",
          "name": "",
          "type": "uint256"
        }
      ],
      "stateMutability": "view",
      "type": "function",
      "constant": true
    },
    {
      "inputs": [
        {
          "internalType": "address",
          "name": "spender",
          "type": "address"
        },
        {
          "internalType": "uint256",
          "name": "addedValue",
          "type": "uint256"
        }
      ],
      "name": "increaseAllowance",
      "outputs": [
        {
          "internalType": "bool",
          "name": "",
          "type": "bool"
        }
      ],
      "stateMutability": "nonpayable",
      "type": "function"
    },
    {
      "inputs": [],
      "name": "name",
      "outputs": [
        {
          "internalType": "string",
          "name": "",
          "type": "string"
        }
      ],
      "stateMutability": "view",
      "type": "function",
      "constant": true
    },
    {
      "inputs": [],
      "name": "owner",
      "outputs": [
        {
          "internalType": "address",
          "name": "",
          "type": "address"
        }
      ],
      "stateMutability": "view",
      "type": "function",
      "constant": true
    },
    {
      "inputs": [],
      "name": "renounceOwnership",
      "outputs": [],
      "stateMutability": "nonpayable",
      "type": "function"
    },
    {
      "inputs": [],
      "name": "symbol",
      "outputs": [
        {
          "internalType": "string",
          "name": "",
          "type": "string"
        }
      ],
      "stateMutability": "view",
      "type": "function",
      "constant": true
    },
    {
      "inputs": [],
      "name": "totalSupply",
      "outputs": [
        {
          "internalType": "uint256",
          "name": "",
          "type": "uint256"
        }
      ],
      "stateMutability": "view",
      "type": "function",
      "constant": true
    },
    {
      "inputs": [
        {
          "internalType": "address",
          "name": "recipient",
          "type": "address"
        },
        {
          "internalType": "uint256",
          "name": "amount",
          "type": "uint256"
        }
      ],
      "name": "transfer",
      "outputs": [
        {
          "internalType": "bool",
          "name": "",
          "type": "bool"
        }
      ],
      "stateMutability": "nonpayable",
      "type": "function"
    },
    {
      "inputs": [
        {
          "internalType": "address",
          "name": "sender",
          "type": "address"
        },
        {
          "internalType": "address",
          "name": "recipient",
          "type": "address"
        },
        {
          "internalType": "uint256",
          "name": "amount",
          "type": "uint256"
        }
      ],
      "name": "transferFrom",
      "outputs": [
        {
          "internalType": "bool",
          "name": "",
          "type": "bool"
        }
      ],
      "stateMutability": "nonpayable",
      "type": "function"
    },
    {
      "inputs": [
        {
          "internalType": "address",
          "name": "newOwner",
          "type": "address"
        }
      ],
      "name": "transferOwnership",
      "outputs": [],
      "stateMutability": "nonpayable",
      "type": "function"
    },
    {
      "inputs": [
        {
          "internalType": "uint256",
          "name": "_exchangeRate",
          "type": "uint256"
        }
      ],
      "name": "updateExchangeRate",
      "outputs": [],
      "stateMutability": "nonpayable",
      "type": "function"
    },
    {
      "inputs": [],
      "name": "purchaseTokens",
      "outputs": [],
      "stateMutability": "payable",
      "type": "function",
      "payable": true
    }
  ],
  "bytecode": "0x60806040523480156200001157600080fd5b50604051620021e1380380620021e18339818101604052810190620000379190620002db565b8282620000596200004d620000d660201b60201c565b620000de60201b60201c565b816004908051906020019062000071929190620001a2565b5080600590805190602001906200008a929190620001a2565b505050806007819055507f388f446e9526fe5c9af20a5919b342370c8a7c0cb05245afe1e545658fa3cdba81604051620000c5919062000374565b60405180910390a1505050620004e6565b600033905090565b60008060009054906101000a900473ffffffffffffffffffffffffffffffffffffffff169050816000806101000a81548173ffffffffffffffffffffffffffffffffffffffff021916908373ffffffffffffffffffffffffffffffffffffffff1602179055508173ffffffffffffffffffffffffffffffffffffffff168173ffffffffffffffffffffffffffffffffffffffff167f8be0079c531659141344cd1fd0a4f28419497f9722a3daafe3b4186f6b6457e060405160405180910390a35050565b828054620001b09062000438565b90600052602060002090601f016020900481019282620001d4576000855562000220565b82601f10620001ef57805160ff191683800117855562000220565b8280016001018555821562000220579182015b828111156200021f57825182559160200191906001019062000202565b5b5090506200022f919062000233565b5090565b5b808211156200024e57600081600090555060010162000234565b5090565b6000620002696200026384620003c5565b62000391565b9050828152602081018484840111156200028257600080fd5b6200028f84828562000402565b509392505050565b600082601f830112620002a957600080fd5b8151620002bb84826020860162000252565b91505092915050565b600081519050620002d581620004cc565b92915050565b600080600060608486031215620002f157600080fd5b600084015167ffffffffffffffff8111156200030c57600080fd5b6200031a8682870162000297565b935050602084015167ffffffffffffffff8111156200033857600080fd5b620003468682870162000297565b92505060406200035986828701620002c4565b9150509250925092565b6200036e81620003f8565b82525050565b60006020820190506200038b600083018462000363565b92915050565b6000604051905081810181811067ffffffffffffffff82111715620003bb57620003ba6200049d565b5b8060405250919050565b600067ffffffffffffffff821115620003e357620003e26200049d565b5b601f19601f8301169050602081019050919050565b6000819050919050565b60005b838110156200042257808201518184015260208101905062000405565b8381111562000432576000848401525b50505050565b600060028204905060018216806200045157607f821691505b602082108114156200046857620004676200046e565b5b50919050565b7f4e487b7100000000000000000000000000000000000000000000000000000000600052602260045260246000fd5b7f4e487b7100000000000000000000000000000000000000000000000000000000600052604160045260246000fd5b620004d781620003f8565b8114620004e357600080fd5b50565b611ceb80620004f66000396000f3fe6080604052600436106100fe5760003560e01c806370a0823111610095578063a457c2d711610064578063a457c2d71461031a578063a9059cbb14610357578063b9e205ae14610394578063dd62ed3e146103bd578063f2fde38b146103fa576100fe565b806370a0823114610270578063715018a6146102ad5780638da5cb5b146102c457806395d89b41146102ef576100fe565b8063313ce567116100d1578063313ce567146101d35780633290ce29146101fe57806339509351146102085780633ba0b9a914610245576100fe565b806306fdde0314610103578063095ea7b31461012e57806318160ddd1461016b57806323b872dd14610196575b600080fd5b34801561010f57600080fd5b50610118610423565b60405161012591906118a3565b60405180910390f35b34801561013a57600080fd5b50610155600480360381019061015091906113a3565b6104b5565b6040516101629190611888565b60405180910390f35b34801561017757600080fd5b506101806104d3565b60405161018d9190611a25565b60405180910390f35b3480156101a257600080fd5b506101bd60048036038101906101b89190611354565b6104dd565b6040516101ca9190611888565b60405180910390f35b3480156101df57600080fd5b506101e86105d5565b6040516101f59190611a77565b60405180910390f35b6102066105de565b005b34801561021457600080fd5b5061022f600480360381019061022a91906113a3565b610698565b60405161023c9190611888565b60405180910390f35b34801561025157600080fd5b5061025a610744565b6040516102679190611a25565b60405180910390f35b34801561027c57600080fd5b50610297600480360381019061029291906112ef565b61074a565b6040516102a49190611a25565b60405180910390f35b3480156102b957600080fd5b506102c2610793565b005b3480156102d057600080fd5b506102d961081b565b6040516102e6919061186d565b60405180910390f35b3480156102fb57600080fd5b50610304610844565b60405161031191906118a3565b60405180910390f35b34801561032657600080fd5b50610341600480360381019061033c91906113a3565b6108d6565b60405161034e9190611888565b60405180910390f35b34801561036357600080fd5b5061037e600480360381019061037991906113a3565b6109c1565b60405161038b9190611888565b60405180910390f35b3480156103a057600080fd5b506103bb60048036038101906103b691906113df565b6109df565b005b3480156103c957600080fd5b506103e460048036038101906103df9190611318565b610a9c565b6040516103f19190611a25565b60405180910390f35b34801561040657600080fd5b50610421600480360381019061041c91906112ef565b610b23565b005b60606004805461043290611be6565b80601f016020809104026020016040519081016040528092919081815260200182805461045e90611be6565b80156104ab5780601f10610480576101008083540402835291602001916104ab565b820191906000526020600020905b81548152906001019060200180831161048e57829003601f168201915b5050505050905090565b60006104c96104c2610c1b565b8484610c23565b6001905092915050565b6000600354905090565b60006104ea848484610dee565b6000600260008673ffffffffffffffffffffffffffffffffffffffff1673ffffffffffffffffffffffffffffffffffffffff1681526020019081526020016000206000610535610c1b565b73ffffffffffffffffffffffffffffffffffffffff1673ffffffffffffffffffffffffffffffffffffffff168152602001908152602001600020549050828110156105b5576040517f08c379a00000000000000000000000000000000000000000000000000000000081526004016105ac90611965565b60405180910390fd5b6105c9856105c1610c1b565b858403610c23565b60019150509392505050565b60006012905090565b6001341015610622576040517f08c379a000000000000000000000000000000000000000000000000000000000815260040161061990611925565b60405180910390fd5b61062c6006611072565b610643336007543461063e9190611b04565b611088565b7f75cc31666f3b6385ba515cf89fd41064642231a796fa7eeea1ba48d9b8ebe26961066e60066111e9565b6007543461067c9190611b04565b60075460405161068e93929190611a40565b60405180910390a1565b600061073a6106a5610c1b565b8484600260006106b3610c1b565b73ffffffffffffffffffffffffffffffffffffffff1673ffffffffffffffffffffffffffffffffffffffff16815260200190815260200160002060008873ffffffffffffffffffffffffffffffffffffffff1673ffffffffffffffffffffffffffffffffffffffff168152602001908152602001600020546107359190611aae565b610c23565b6001905092915050565b60075481565b6000600160008373ffffffffffffffffffffffffffffffffffffffff1673ffffffffffffffffffffffffffffffffffffffff168152602001908152602001600020549050919050565b61079b610c1b565b73ffffffffffffffffffffffffffffffffffffffff166107b961081b565b73ffffffffffffffffffffffffffffffffffffffff161461080f576040517f08c379a000000000000000000000000000000000000000000000000000000000815260040161080690611985565b60405180910390fd5b61081960006111f7565b565b60008060009054906101000a900473ffffffffffffffffffffffffffffffffffffffff16905090565b60606005805461085390611be6565b80601f016020809104026020016040519081016040528092919081815260200182805461087f90611be6565b80156108cc5780601f106108a1576101008083540402835291602001916108cc565b820191906000526020600020905b8154815290600101906020018083116108af57829003601f168201915b5050505050905090565b600080600260006108e5610c1b565b73ffffffffffffffffffffffffffffffffffffffff1673ffffffffffffffffffffffffffffffffffffffff16815260200190815260200160002060008573ffffffffffffffffffffffffffffffffffffffff1673ffffffffffffffffffffffffffffffffffffffff168152602001908152602001600020549050828110156109a2576040517f08c379a0000000000000000000000000000000000000000000000000000000008152600401610999906119e5565b60405180910390fd5b6109b66109ad610c1b565b85858403610c23565b600191505092915050565b60006109d56109ce610c1b565b8484610dee565b6001905092915050565b6109e7610c1b565b73ffffffffffffffffffffffffffffffffffffffff16610a0561081b565b73ffffffffffffffffffffffffffffffffffffffff1614610a5b576040517f08c379a0000000000000000000000000000000000000000000000000000000008152600401610a5290611985565b60405180910390fd5b806007819055507f388f446e9526fe5c9af20a5919b342370c8a7c0cb05245afe1e545658fa3cdba81604051610a919190611a25565b60405180910390a150565b6000600260008473ffffffffffffffffffffffffffffffffffffffff1673ffffffffffffffffffffffffffffffffffffffff16815260200190815260200160002060008373ffffffffffffffffffffffffffffffffffffffff1673ffffffffffffffffffffffffffffffffffffffff16815260200190815260200160002054905092915050565b610b2b610c1b565b73ffffffffffffffffffffffffffffffffffffffff16610b4961081b565b73ffffffffffffffffffffffffffffffffffffffff1614610b9f576040517f08c379a0000000000000000000000000000000000000000000000000000000008152600401610b9690611985565b60405180910390fd5b600073ffffffffffffffffffffffffffffffffffffffff168173ffffffffffffffffffffffffffffffffffffffff161415610c0f576040517f08c379a0000000000000000000000000000000000000000000000000000000008152600401610c06906118e5565b60405180910390fd5b610c18816111f7565b50565b600033905090565b600073ffffffffffffffffffffffffffffffffffffffff168373ffffffffffffffffffffffffffffffffffffffff161415610c93576040517f08c379a0000000000000000000000000000000000000000000000000000000008152600401610c8a906119c5565b60405180910390fd5b600073ffffffffffffffffffffffffffffffffffffffff168273ffffffffffffffffffffffffffffffffffffffff161415610d03576040517f08c379a0000000000000000000000000000000000000000000000000000000008152600401610cfa90611905565b60405180910390fd5b80600260008573ffffffffffffffffffffffffffffffffffffffff1673ffffffffffffffffffffffffffffffffffffffff16815260200190815260200160002060008473ffffffffffffffffffffffffffffffffffffffff1673ffffffffffffffffffffffffffffffffffffffff168152602001908152602001600020819055508173ffffffffffffffffffffffffffffffffffffffff168373ffffffffffffffffffffffffffffffffffffffff167f8c5be1e5ebec7d5bd14f71427d1e84f3dd0314c0f7b2291e5b200ac8c7c3b92583604051610de19190611a25565b60405180910390a3505050565b600073ffffffffffffffffffffffffffffffffffffffff168373ffffffffffffffffffffffffffffffffffffffff161415610e5e576040517f08c379a0000000000000000000000000000000000000000000000000000000008152600401610e55906119a5565b60405180910390fd5b600073ffffffffffffffffffffffffffffffffffffffff168273ffffffffffffffffffffffffffffffffffffffff161415610ece576040517f08c379a0000000000000000000000000000000000000000000000000000000008152600401610ec5906118c5565b60405180910390fd5b610ed98383836112bb565b6000600160008573ffffffffffffffffffffffffffffffffffffffff1673ffffffffffffffffffffffffffffffffffffffff16815260200190815260200160002054905081811015610f60576040517f08c379a0000000000000000000000000000000000000000000000000000000008152600401610f5790611945565b60405180910390fd5b818103600160008673ffffffffffffffffffffffffffffffffffffffff1673ffffffffffffffffffffffffffffffffffffffff1681526020019081526020016000208190555081600160008573ffffffffffffffffffffffffffffffffffffffff1673ffffffffffffffffffffffffffffffffffffffff1681526020019081526020016000206000828254610ff59190611aae565b925050819055508273ffffffffffffffffffffffffffffffffffffffff168473ffffffffffffffffffffffffffffffffffffffff167fddf252ad1be2c89b69c2b068fc378daa952ba7f163c4a11628f55a4df523b3ef846040516110599190611a25565b60405180910390a361106c8484846112c0565b50505050565b6001816000016000828254019250508190555050565b600073ffffffffffffffffffffffffffffffffffffffff168273ffffffffffffffffffffffffffffffffffffffff1614156110f8576040517f08c379a00000000000000000000000000000000000000000000000000000000081526004016110ef90611a05565b60405180910390fd5b611104600083836112bb565b80600360008282546111169190611aae565b9250508190555080600160008473ffffffffffffffffffffffffffffffffffffffff1673ffffffffffffffffffffffffffffffffffffffff168152602001908152602001600020600082825461116c9190611aae565b925050819055508173ffffffffffffffffffffffffffffffffffffffff16600073ffffffffffffffffffffffffffffffffffffffff167fddf252ad1be2c89b69c2b068fc378daa952ba7f163c4a11628f55a4df523b3ef836040516111d19190611a25565b60405180910390a36111e5600083836112c0565b5050565b600081600001549050919050565b60008060009054906101000a900473ffffffffffffffffffffffffffffffffffffffff169050816000806101000a81548173ffffffffffffffffffffffffffffffffffffffff021916908373ffffffffffffffffffffffffffffffffffffffff1602179055508173ffffffffffffffffffffffffffffffffffffffff168173ffffffffffffffffffffffffffffffffffffffff167f8be0079c531659141344cd1fd0a4f28419497f9722a3daafe3b4186f6b6457e060405160405180910390a35050565b505050565b505050565b6000813590506112d481611c87565b92915050565b6000813590506112e981611c9e565b92915050565b60006020828403121561130157600080fd5b600061130f848285016112c5565b91505092915050565b6000806040838503121561132b57600080fd5b6000611339858286016112c5565b925050602061134a858286016112c5565b9150509250929050565b60008060006060848603121561136957600080fd5b6000611377868287016112c5565b9350506020611388868287016112c5565b9250506040611399868287016112da565b9150509250925092565b600080604083850312156113b657600080fd5b60006113c4858286016112c5565b92505060206113d5858286016112da565b9150509250929050565b6000602082840312156113f157600080fd5b60006113ff848285016112da565b91505092915050565b61141181611b5e565b82525050565b61142081611b70565b82525050565b600061143182611a92565b61143b8185611a9d565b935061144b818560208601611bb3565b61145481611c76565b840191505092915050565b600061146c602383611a9d565b91507f45524332303a207472616e7366657220746f20746865207a65726f206164647260008301527f65737300000000000000000000000000000000000000000000000000000000006020830152604082019050919050565b60006114d2602683611a9d565b91507f4f776e61626c653a206e6577206f776e657220697320746865207a65726f206160008301527f64647265737300000000000000000000000000000000000000000000000000006020830152604082019050919050565b6000611538602283611a9d565b91507f45524332303a20617070726f766520746f20746865207a65726f20616464726560008301527f73730000000000000000000000000000000000000000000000000000000000006020830152604082019050919050565b600061159e602083611a9d565b91507f6d757374207075726368617365206174206c65617374206f6e6520746f6b656e6000830152602082019050919050565b60006115de602683611a9d565b91507f45524332303a207472616e7366657220616d6f756e742065786365656473206260008301527f616c616e636500000000000000000000000000000000000000000000000000006020830152604082019050919050565b6000611644602883611a9d565b91507f45524332303a207472616e7366657220616d6f756e742065786365656473206160008301527f6c6c6f77616e63650000000000000000000000000000000000000000000000006020830152604082019050919050565b60006116aa602083611a9d565b91507f4f776e61626c653a2063616c6c6572206973206e6f7420746865206f776e65726000830152602082019050919050565b60006116ea602583611a9d565b91507f45524332303a207472616e736665722066726f6d20746865207a65726f20616460008301527f64726573730000000000000000000000000000000000000000000000000000006020830152604082019050919050565b6000611750602483611a9d565b91507f45524332303a20617070726f76652066726f6d20746865207a65726f2061646460008301527f72657373000000000000000000000000000000000000000000000000000000006020830152604082019050919050565b60006117b6602583611a9d565b91507f45524332303a2064656372656173656420616c6c6f77616e63652062656c6f7760008301527f207a65726f0000000000000000000000000000000000000000000000000000006020830152604082019050919050565b600061181c601f83611a9d565b91507f45524332303a206d696e7420746f20746865207a65726f2061646472657373006000830152602082019050919050565b61185881611b9c565b82525050565b61186781611ba6565b82525050565b60006020820190506118826000830184611408565b92915050565b600060208201905061189d6000830184611417565b92915050565b600060208201905081810360008301526118bd8184611426565b905092915050565b600060208201905081810360008301526118de8161145f565b9050919050565b600060208201905081810360008301526118fe816114c5565b9050919050565b6000602082019050818103600083015261191e8161152b565b9050919050565b6000602082019050818103600083015261193e81611591565b9050919050565b6000602082019050818103600083015261195e816115d1565b9050919050565b6000602082019050818103600083015261197e81611637565b9050919050565b6000602082019050818103600083015261199e8161169d565b9050919050565b600060208201905081810360008301526119be816116dd565b9050919050565b600060208201905081810360008301526119de81611743565b9050919050565b600060208201905081810360008301526119fe816117a9565b9050919050565b60006020820190508181036000830152611a1e8161180f565b9050919050565b6000602082019050611a3a600083018461184f565b92915050565b6000606082019050611a55600083018661184f565b611a62602083018561184f565b611a6f604083018461184f565b949350505050565b6000602082019050611a8c600083018461185e565b92915050565b600081519050919050565b600082825260208201905092915050565b6000611ab982611b9c565b9150611ac483611b9c565b9250827fffffffffffffffffffffffffffffffffffffffffffffffffffffffffffffffff03821115611af957611af8611c18565b5b828201905092915050565b6000611b0f82611b9c565b9150611b1a83611b9c565b9250817fffffffffffffffffffffffffffffffffffffffffffffffffffffffffffffffff0483118215151615611b5357611b52611c18565b5b828202905092915050565b6000611b6982611b7c565b9050919050565b60008115159050919050565b600073ffffffffffffffffffffffffffffffffffffffff82169050919050565b6000819050919050565b600060ff82169050919050565b60005b83811015611bd1578082015181840152602081019050611bb6565b83811115611be0576000848401525b50505050565b60006002820490506001821680611bfe57607f821691505b60208210811415611c1257611c11611c47565b5b50919050565b7f4e487b7100000000000000000000000000000000000000000000000000000000600052601160045260246000fd5b7f4e487b7100000000000000000000000000000000000000000000000000000000600052602260045260246000fd5b6000601f19601f8301169050919050565b611c9081611b5e565b8114611c9b57600080fd5b50565b611ca781611b9c565b8114611cb257600080fd5b5056fea2646970667358221220a24fe28f5aa5231a8d3046a900617a10deedd6f6d929e956de4818b6c38f047e64736f6c63430008000033",
  "immutableReferences": {},
  "source": "// SPDX-License-Identifier: MIT\npragma solidity >=0.8.0 <0.9.0;\n\nimport \"@openzeppelin/contracts/access/Ownable.sol\";\nimport \"@openzeppelin/contracts/token/ERC20/ERC20.sol\";\nimport \"@openzeppelin/contracts/utils/Counters.sol\";\n\ncontract Token is Ownable, ERC20 {\n  using Counters for Counters.Counter;\n  Counters.Counter private _purchaseCount;\n\n  uint256 public exchangeRate; // token per wei\n\n  event ExchangeRateUpdated(uint256 updatedExchangeRate);\n  event Purchase(uint256 id, uint256 numberTokens, uint256 exchangeRate);\n\n  constructor (string memory _name, string memory _symbol, uint256 _exchangeRate) ERC20(_name, _symbol) {\n    exchangeRate = _exchangeRate;\n    emit ExchangeRateUpdated(_exchangeRate);\n  }\n\n  function updateExchangeRate(uint256 _exchangeRate) public onlyOwner {\n    exchangeRate = _exchangeRate;\n    emit ExchangeRateUpdated(_exchangeRate);\n  }\n  \n  function purchaseTokens() public payable {\n    require(msg.value >= 1, 'must purchase at least one token');\n    _purchaseCount.increment();\n    _mint(msg.sender, msg.value * exchangeRate);\n    emit Purchase(_purchaseCount.current(), msg.value * exchangeRate, exchangeRate);\n  }\n}",
  "sourcePath": "/Users/andrewmlevy/Documents/blockchain/4_portfolio_projects/swap-eth-custom-token/src/contracts/Token.sol",
  "compiler": {
    "name": "solc",
    "version": "0.8.0+commit.c7dfd78e.Emscripten.clang"
  },
  "schemaVersion": "3.4.3",
  "updatedAt": "2021-12-29T17:22:32.435Z",
  "networkType": "ethereum",
  "devdoc": {
    "kind": "dev",
    "methods": {
      "allowance(address,address)": {
        "details": "See {IERC20-allowance}."
      },
      "approve(address,uint256)": {
        "details": "See {IERC20-approve}. Requirements: - `spender` cannot be the zero address."
      },
      "balanceOf(address)": {
        "details": "See {IERC20-balanceOf}."
      },
      "decimals()": {
        "details": "Returns the number of decimals used to get its user representation. For example, if `decimals` equals `2`, a balance of `505` tokens should be displayed to a user as `5.05` (`505 / 10 ** 2`). Tokens usually opt for a value of 18, imitating the relationship between Ether and Wei. This is the value {ERC20} uses, unless this function is overridden; NOTE: This information is only used for _display_ purposes: it in no way affects any of the arithmetic of the contract, including {IERC20-balanceOf} and {IERC20-transfer}."
      },
      "decreaseAllowance(address,uint256)": {
        "details": "Atomically decreases the allowance granted to `spender` by the caller. This is an alternative to {approve} that can be used as a mitigation for problems described in {IERC20-approve}. Emits an {Approval} event indicating the updated allowance. Requirements: - `spender` cannot be the zero address. - `spender` must have allowance for the caller of at least `subtractedValue`."
      },
      "increaseAllowance(address,uint256)": {
        "details": "Atomically increases the allowance granted to `spender` by the caller. This is an alternative to {approve} that can be used as a mitigation for problems described in {IERC20-approve}. Emits an {Approval} event indicating the updated allowance. Requirements: - `spender` cannot be the zero address."
      },
      "name()": {
        "details": "Returns the name of the token."
      },
      "owner()": {
        "details": "Returns the address of the current owner."
      },
      "renounceOwnership()": {
        "details": "Leaves the contract without owner. It will not be possible to call `onlyOwner` functions anymore. Can only be called by the current owner. NOTE: Renouncing ownership will leave the contract without an owner, thereby removing any functionality that is only available to the owner."
      },
      "symbol()": {
        "details": "Returns the symbol of the token, usually a shorter version of the name."
      },
      "totalSupply()": {
        "details": "See {IERC20-totalSupply}."
      },
      "transfer(address,uint256)": {
        "details": "See {IERC20-transfer}. Requirements: - `recipient` cannot be the zero address. - the caller must have a balance of at least `amount`."
      },
      "transferFrom(address,address,uint256)": {
        "details": "See {IERC20-transferFrom}. Emits an {Approval} event indicating the updated allowance. This is not required by the EIP. See the note at the beginning of {ERC20}. Requirements: - `sender` and `recipient` cannot be the zero address. - `sender` must have a balance of at least `amount`. - the caller must have allowance for ``sender``'s tokens of at least `amount`."
      },
      "transferOwnership(address)": {
        "details": "Transfers ownership of the contract to a new account (`newOwner`). Can only be called by the current owner."
      }
    },
    "version": 1
  },
  "userdoc": {
    "kind": "user",
    "methods": {},
    "version": 1
  }
}