{
  "contractName": "Token",
  "abi": [
    {
      "inputs": [
        {
          "internalType": "string",
          "name": "_name",
          "type": "string"
        },
        {
          "internalType": "string",
          "name": "_symbol",
          "type": "string"
        },
        {
          "internalType": "uint256",
          "name": "_exchangeRate",
          "type": "uint256"
        }
      ],
      "stateMutability": "nonpayable",
      "type": "constructor"
    },
    {
      "anonymous": false,
      "inputs": [
        {
          "indexed": true,
          "internalType": "address",
          "name": "owner",
          "type": "address"
        },
        {
          "indexed": true,
          "internalType": "address",
          "name": "spender",
          "type": "address"
        },
        {
          "indexed": false,
          "internalType": "uint256",
          "name": "value",
          "type": "uint256"
        }
      ],
      "name": "Approval",
      "type": "event"
    },
    {
      "anonymous": false,
      "inputs": [
        {
          "indexed": false,
          "internalType": "uint256",
          "name": "id",
          "type": "uint256"
        },
        {
          "indexed": false,
          "internalType": "uint256",
          "name": "numberTokens",
          "type": "uint256"
        },
        {
          "indexed": false,
          "internalType": "uint256",
          "name": "exchangeRate",
          "type": "uint256"
        }
      ],
      "name": "Purchase",
      "type": "event"
    },
    {
      "anonymous": false,
      "inputs": [
        {
          "indexed": true,
          "internalType": "address",
          "name": "from",
          "type": "address"
        },
        {
          "indexed": true,
          "internalType": "address",
          "name": "to",
          "type": "address"
        },
        {
          "indexed": false,
          "internalType": "uint256",
          "name": "value",
          "type": "uint256"
        }
      ],
      "name": "Transfer",
      "type": "event"
    },
    {
      "inputs": [
        {
          "internalType": "address",
          "name": "owner",
          "type": "address"
        },
        {
          "internalType": "address",
          "name": "spender",
          "type": "address"
        }
      ],
      "name": "allowance",
      "outputs": [
        {
          "internalType": "uint256",
          "name": "",
          "type": "uint256"
        }
      ],
      "stateMutability": "view",
      "type": "function",
      "constant": true
    },
    {
      "inputs": [
        {
          "internalType": "address",
          "name": "spender",
          "type": "address"
        },
        {
          "internalType": "uint256",
          "name": "amount",
          "type": "uint256"
        }
      ],
      "name": "approve",
      "outputs": [
        {
          "internalType": "bool",
          "name": "",
          "type": "bool"
        }
      ],
      "stateMutability": "nonpayable",
      "type": "function"
    },
    {
      "inputs": [
        {
          "internalType": "address",
          "name": "account",
          "type": "address"
        }
      ],
      "name": "balanceOf",
      "outputs": [
        {
          "internalType": "uint256",
          "name": "",
          "type": "uint256"
        }
      ],
      "stateMutability": "view",
      "type": "function",
      "constant": true
    },
    {
      "inputs": [],
      "name": "decimals",
      "outputs": [
        {
          "internalType": "uint8",
          "name": "",
          "type": "uint8"
        }
      ],
      "stateMutability": "view",
      "type": "function",
      "constant": true
    },
    {
      "inputs": [
        {
          "internalType": "address",
          "name": "spender",
          "type": "address"
        },
        {
          "internalType": "uint256",
          "name": "subtractedValue",
          "type": "uint256"
        }
      ],
      "name": "decreaseAllowance",
      "outputs": [
        {
          "internalType": "bool",
          "name": "",
          "type": "bool"
        }
      ],
      "stateMutability": "nonpayable",
      "type": "function"
    },
    {
      "inputs": [],
      "name": "exchangeRate",
      "outputs": [
        {
          "internalType": "uint256",
          "name": "",
          "type": "uint256"
        }
      ],
      "stateMutability": "view",
      "type": "function",
      "constant": true
    },
    {
      "inputs": [
        {
          "internalType": "address",
          "name": "spender",
          "type": "address"
        },
        {
          "internalType": "uint256",
          "name": "addedValue",
          "type": "uint256"
        }
      ],
      "name": "increaseAllowance",
      "outputs": [
        {
          "internalType": "bool",
          "name": "",
          "type": "bool"
        }
      ],
      "stateMutability": "nonpayable",
      "type": "function"
    },
    {
      "inputs": [],
      "name": "name",
      "outputs": [
        {
          "internalType": "string",
          "name": "",
          "type": "string"
        }
      ],
      "stateMutability": "view",
      "type": "function",
      "constant": true
    },
    {
      "inputs": [],
      "name": "symbol",
      "outputs": [
        {
          "internalType": "string",
          "name": "",
          "type": "string"
        }
      ],
      "stateMutability": "view",
      "type": "function",
      "constant": true
    },
    {
      "inputs": [],
      "name": "totalSupply",
      "outputs": [
        {
          "internalType": "uint256",
          "name": "",
          "type": "uint256"
        }
      ],
      "stateMutability": "view",
      "type": "function",
      "constant": true
    },
    {
      "inputs": [
        {
          "internalType": "address",
          "name": "recipient",
          "type": "address"
        },
        {
          "internalType": "uint256",
          "name": "amount",
          "type": "uint256"
        }
      ],
      "name": "transfer",
      "outputs": [
        {
          "internalType": "bool",
          "name": "",
          "type": "bool"
        }
      ],
      "stateMutability": "nonpayable",
      "type": "function"
    },
    {
      "inputs": [
        {
          "internalType": "address",
          "name": "sender",
          "type": "address"
        },
        {
          "internalType": "address",
          "name": "recipient",
          "type": "address"
        },
        {
          "internalType": "uint256",
          "name": "amount",
          "type": "uint256"
        }
      ],
      "name": "transferFrom",
      "outputs": [
        {
          "internalType": "bool",
          "name": "",
          "type": "bool"
        }
      ],
      "stateMutability": "nonpayable",
      "type": "function"
    },
    {
      "inputs": [],
      "name": "purchaseTokens",
      "outputs": [],
      "stateMutability": "payable",
      "type": "function",
      "payable": true
    }
  ],
  "bytecode": "0x60806040523480156200001157600080fd5b5060405162001b5638038062001b568339818101604052810190620000379190620001b6565b82828160039080519060200190620000519291906200007d565b5080600490805190602001906200006a9291906200007d565b5050508060068190555050505062000393565b8280546200008b90620002e5565b90600052602060002090601f016020900481019282620000af5760008555620000fb565b82601f10620000ca57805160ff1916838001178555620000fb565b82800160010185558215620000fb579182015b82811115620000fa578251825591602001919060010190620000dd565b5b5090506200010a91906200010e565b5090565b5b80821115620001295760008160009055506001016200010f565b5090565b6000620001446200013e8462000272565b6200023e565b9050828152602081018484840111156200015d57600080fd5b6200016a848285620002af565b509392505050565b600082601f8301126200018457600080fd5b8151620001968482602086016200012d565b91505092915050565b600081519050620001b08162000379565b92915050565b600080600060608486031215620001cc57600080fd5b600084015167ffffffffffffffff811115620001e757600080fd5b620001f58682870162000172565b935050602084015167ffffffffffffffff8111156200021357600080fd5b620002218682870162000172565b925050604062000234868287016200019f565b9150509250925092565b6000604051905081810181811067ffffffffffffffff821117156200026857620002676200034a565b5b8060405250919050565b600067ffffffffffffffff82111562000290576200028f6200034a565b5b601f19601f8301169050602081019050919050565b6000819050919050565b60005b83811015620002cf578082015181840152602081019050620002b2565b83811115620002df576000848401525b50505050565b60006002820490506001821680620002fe57607f821691505b602082108114156200031557620003146200031b565b5b50919050565b7f4e487b7100000000000000000000000000000000000000000000000000000000600052602260045260246000fd5b7f4e487b7100000000000000000000000000000000000000000000000000000000600052604160045260246000fd5b6200038481620002a5565b81146200039057600080fd5b50565b6117b380620003a36000396000f3fe6080604052600436106100c25760003560e01c8063395093511161007f57806395d89b411161005957806395d89b4114610271578063a457c2d71461029c578063a9059cbb146102d9578063dd62ed3e14610316576100c2565b806339509351146101cc5780633ba0b9a91461020957806370a0823114610234576100c2565b806306fdde03146100c7578063095ea7b3146100f257806318160ddd1461012f57806323b872dd1461015a578063313ce567146101975780633290ce29146101c2575b600080fd5b3480156100d357600080fd5b506100dc610353565b6040516100e991906113ab565b60405180910390f35b3480156100fe57600080fd5b5061011960048036038101906101149190610fa4565b6103e5565b6040516101269190611390565b60405180910390f35b34801561013b57600080fd5b50610144610403565b60405161015191906114ed565b60405180910390f35b34801561016657600080fd5b50610181600480360381019061017c9190610f55565b61040d565b60405161018e9190611390565b60405180910390f35b3480156101a357600080fd5b506101ac610505565b6040516101b9919061153f565b60405180910390f35b6101ca61050e565b005b3480156101d857600080fd5b506101f360048036038101906101ee9190610fa4565b6105c8565b6040516102009190611390565b60405180910390f35b34801561021557600080fd5b5061021e610674565b60405161022b91906114ed565b60405180910390f35b34801561024057600080fd5b5061025b60048036038101906102569190610ef0565b61067a565b60405161026891906114ed565b60405180910390f35b34801561027d57600080fd5b506102866106c2565b60405161029391906113ab565b60405180910390f35b3480156102a857600080fd5b506102c360048036038101906102be9190610fa4565b610754565b6040516102d09190611390565b60405180910390f35b3480156102e557600080fd5b5061030060048036038101906102fb9190610fa4565b61083f565b60405161030d9190611390565b60405180910390f35b34801561032257600080fd5b5061033d60048036038101906103389190610f19565b61085d565b60405161034a91906114ed565b60405180910390f35b606060038054610362906116ae565b80601f016020809104026020016040519081016040528092919081815260200182805461038e906116ae565b80156103db5780601f106103b0576101008083540402835291602001916103db565b820191906000526020600020905b8154815290600101906020018083116103be57829003601f168201915b5050505050905090565b60006103f96103f26108e4565b84846108ec565b6001905092915050565b6000600254905090565b600061041a848484610ab7565b6000600160008673ffffffffffffffffffffffffffffffffffffffff1673ffffffffffffffffffffffffffffffffffffffff16815260200190815260200160002060006104656108e4565b73ffffffffffffffffffffffffffffffffffffffff1673ffffffffffffffffffffffffffffffffffffffff168152602001908152602001600020549050828110156104e5576040517f08c379a00000000000000000000000000000000000000000000000000000000081526004016104dc9061144d565b60405180910390fd5b6104f9856104f16108e4565b8584036108ec565b60019150509392505050565b60006012905090565b6001341015610552576040517f08c379a00000000000000000000000000000000000000000000000000000000081526004016105499061140d565b60405180910390fd5b61055c6005610d38565b610573336006543461056e91906115cc565b610d4e565b7f75cc31666f3b6385ba515cf89fd41064642231a796fa7eeea1ba48d9b8ebe26961059e6005610eae565b600654346105ac91906115cc565b6006546040516105be93929190611508565b60405180910390a1565b600061066a6105d56108e4565b8484600160006105e36108e4565b73ffffffffffffffffffffffffffffffffffffffff1673ffffffffffffffffffffffffffffffffffffffff16815260200190815260200160002060008873ffffffffffffffffffffffffffffffffffffffff1673ffffffffffffffffffffffffffffffffffffffff168152602001908152602001600020546106659190611576565b6108ec565b6001905092915050565b60065481565b60008060008373ffffffffffffffffffffffffffffffffffffffff1673ffffffffffffffffffffffffffffffffffffffff168152602001908152602001600020549050919050565b6060600480546106d1906116ae565b80601f01602080910402602001604051908101604052809291908181526020018280546106fd906116ae565b801561074a5780601f1061071f5761010080835404028352916020019161074a565b820191906000526020600020905b81548152906001019060200180831161072d57829003601f168201915b5050505050905090565b600080600160006107636108e4565b73ffffffffffffffffffffffffffffffffffffffff1673ffffffffffffffffffffffffffffffffffffffff16815260200190815260200160002060008573ffffffffffffffffffffffffffffffffffffffff1673ffffffffffffffffffffffffffffffffffffffff16815260200190815260200160002054905082811015610820576040517f08c379a0000000000000000000000000000000000000000000000000000000008152600401610817906114ad565b60405180910390fd5b61083461082b6108e4565b858584036108ec565b600191505092915050565b600061085361084c6108e4565b8484610ab7565b6001905092915050565b6000600160008473ffffffffffffffffffffffffffffffffffffffff1673ffffffffffffffffffffffffffffffffffffffff16815260200190815260200160002060008373ffffffffffffffffffffffffffffffffffffffff1673ffffffffffffffffffffffffffffffffffffffff16815260200190815260200160002054905092915050565b600033905090565b600073ffffffffffffffffffffffffffffffffffffffff168373ffffffffffffffffffffffffffffffffffffffff16141561095c576040517f08c379a00000000000000000000000000000000000000000000000000000000081526004016109539061148d565b60405180910390fd5b600073ffffffffffffffffffffffffffffffffffffffff168273ffffffffffffffffffffffffffffffffffffffff1614156109cc576040517f08c379a00000000000000000000000000000000000000000000000000000000081526004016109c3906113ed565b60405180910390fd5b80600160008573ffffffffffffffffffffffffffffffffffffffff1673ffffffffffffffffffffffffffffffffffffffff16815260200190815260200160002060008473ffffffffffffffffffffffffffffffffffffffff1673ffffffffffffffffffffffffffffffffffffffff168152602001908152602001600020819055508173ffffffffffffffffffffffffffffffffffffffff168373ffffffffffffffffffffffffffffffffffffffff167f8c5be1e5ebec7d5bd14f71427d1e84f3dd0314c0f7b2291e5b200ac8c7c3b92583604051610aaa91906114ed565b60405180910390a3505050565b600073ffffffffffffffffffffffffffffffffffffffff168373ffffffffffffffffffffffffffffffffffffffff161415610b27576040517f08c379a0000000000000000000000000000000000000000000000000000000008152600401610b1e9061146d565b60405180910390fd5b600073ffffffffffffffffffffffffffffffffffffffff168273ffffffffffffffffffffffffffffffffffffffff161415610b97576040517f08c379a0000000000000000000000000000000000000000000000000000000008152600401610b8e906113cd565b60405180910390fd5b610ba2838383610ebc565b60008060008573ffffffffffffffffffffffffffffffffffffffff1673ffffffffffffffffffffffffffffffffffffffff16815260200190815260200160002054905081811015610c28576040517f08c379a0000000000000000000000000000000000000000000000000000000008152600401610c1f9061142d565b60405180910390fd5b8181036000808673ffffffffffffffffffffffffffffffffffffffff1673ffffffffffffffffffffffffffffffffffffffff16815260200190815260200160002081905550816000808573ffffffffffffffffffffffffffffffffffffffff1673ffffffffffffffffffffffffffffffffffffffff1681526020019081526020016000206000828254610cbb9190611576565b925050819055508273ffffffffffffffffffffffffffffffffffffffff168473ffffffffffffffffffffffffffffffffffffffff167fddf252ad1be2c89b69c2b068fc378daa952ba7f163c4a11628f55a4df523b3ef84604051610d1f91906114ed565b60405180910390a3610d32848484610ec1565b50505050565b6001816000016000828254019250508190555050565b600073ffffffffffffffffffffffffffffffffffffffff168273ffffffffffffffffffffffffffffffffffffffff161415610dbe576040517f08c379a0000000000000000000000000000000000000000000000000000000008152600401610db5906114cd565b60405180910390fd5b610dca60008383610ebc565b8060026000828254610ddc9190611576565b92505081905550806000808473ffffffffffffffffffffffffffffffffffffffff1673ffffffffffffffffffffffffffffffffffffffff1681526020019081526020016000206000828254610e319190611576565b925050819055508173ffffffffffffffffffffffffffffffffffffffff16600073ffffffffffffffffffffffffffffffffffffffff167fddf252ad1be2c89b69c2b068fc378daa952ba7f163c4a11628f55a4df523b3ef83604051610e9691906114ed565b60405180910390a3610eaa60008383610ec1565b5050565b600081600001549050919050565b505050565b505050565b600081359050610ed58161174f565b92915050565b600081359050610eea81611766565b92915050565b600060208284031215610f0257600080fd5b6000610f1084828501610ec6565b91505092915050565b60008060408385031215610f2c57600080fd5b6000610f3a85828601610ec6565b9250506020610f4b85828601610ec6565b9150509250929050565b600080600060608486031215610f6a57600080fd5b6000610f7886828701610ec6565b9350506020610f8986828701610ec6565b9250506040610f9a86828701610edb565b9150509250925092565b60008060408385031215610fb757600080fd5b6000610fc585828601610ec6565b9250506020610fd685828601610edb565b9150509250929050565b610fe981611638565b82525050565b6000610ffa8261155a565b6110048185611565565b935061101481856020860161167b565b61101d8161173e565b840191505092915050565b6000611035602383611565565b91507f45524332303a207472616e7366657220746f20746865207a65726f206164647260008301527f65737300000000000000000000000000000000000000000000000000000000006020830152604082019050919050565b600061109b602283611565565b91507f45524332303a20617070726f766520746f20746865207a65726f20616464726560008301527f73730000000000000000000000000000000000000000000000000000000000006020830152604082019050919050565b6000611101601683611565565b91507f6d757374206265206174206c65617374203120776569000000000000000000006000830152602082019050919050565b6000611141602683611565565b91507f45524332303a207472616e7366657220616d6f756e742065786365656473206260008301527f616c616e636500000000000000000000000000000000000000000000000000006020830152604082019050919050565b60006111a7602883611565565b91507f45524332303a207472616e7366657220616d6f756e742065786365656473206160008301527f6c6c6f77616e63650000000000000000000000000000000000000000000000006020830152604082019050919050565b600061120d602583611565565b91507f45524332303a207472616e736665722066726f6d20746865207a65726f20616460008301527f64726573730000000000000000000000000000000000000000000000000000006020830152604082019050919050565b6000611273602483611565565b91507f45524332303a20617070726f76652066726f6d20746865207a65726f2061646460008301527f72657373000000000000000000000000000000000000000000000000000000006020830152604082019050919050565b60006112d9602583611565565b91507f45524332303a2064656372656173656420616c6c6f77616e63652062656c6f7760008301527f207a65726f0000000000000000000000000000000000000000000000000000006020830152604082019050919050565b600061133f601f83611565565b91507f45524332303a206d696e7420746f20746865207a65726f2061646472657373006000830152602082019050919050565b61137b81611664565b82525050565b61138a8161166e565b82525050565b60006020820190506113a56000830184610fe0565b92915050565b600060208201905081810360008301526113c58184610fef565b905092915050565b600060208201905081810360008301526113e681611028565b9050919050565b600060208201905081810360008301526114068161108e565b9050919050565b60006020820190508181036000830152611426816110f4565b9050919050565b6000602082019050818103600083015261144681611134565b9050919050565b600060208201905081810360008301526114668161119a565b9050919050565b6000602082019050818103600083015261148681611200565b9050919050565b600060208201905081810360008301526114a681611266565b9050919050565b600060208201905081810360008301526114c6816112cc565b9050919050565b600060208201905081810360008301526114e681611332565b9050919050565b60006020820190506115026000830184611372565b92915050565b600060608201905061151d6000830186611372565b61152a6020830185611372565b6115376040830184611372565b949350505050565b60006020820190506115546000830184611381565b92915050565b600081519050919050565b600082825260208201905092915050565b600061158182611664565b915061158c83611664565b9250827fffffffffffffffffffffffffffffffffffffffffffffffffffffffffffffffff038211156115c1576115c06116e0565b5b828201905092915050565b60006115d782611664565b91506115e283611664565b9250817fffffffffffffffffffffffffffffffffffffffffffffffffffffffffffffffff048311821515161561161b5761161a6116e0565b5b828202905092915050565b600061163182611644565b9050919050565b60008115159050919050565b600073ffffffffffffffffffffffffffffffffffffffff82169050919050565b6000819050919050565b600060ff82169050919050565b60005b8381101561169957808201518184015260208101905061167e565b838111156116a8576000848401525b50505050565b600060028204905060018216806116c657607f821691505b602082108114156116da576116d961170f565b5b50919050565b7f4e487b7100000000000000000000000000000000000000000000000000000000600052601160045260246000fd5b7f4e487b7100000000000000000000000000000000000000000000000000000000600052602260045260246000fd5b6000601f19601f8301169050919050565b61175881611626565b811461176357600080fd5b50565b61176f81611664565b811461177a57600080fd5b5056fea2646970667358221220789542002afeaae70a2799f499d9defc7312fee9b50b5099601cc764292bcc0f64736f6c63430008000033",
  "immutableReferences": {},
  "source": "// SPDX-License-Identifier: MIT\npragma solidity >=0.8.0 <0.9.0;\n\nimport \"@openzeppelin/contracts/token/ERC20/ERC20.sol\";\nimport \"@openzeppelin/contracts/utils/Counters.sol\";\n\ncontract Token is ERC20 {\n  using Counters for Counters.Counter;\n  Counters.Counter private _purchaseCount;\n\n  uint256 public exchangeRate; // tokens per ETH\n\n  event Purchase(uint256 id, uint256 numberTokens, uint256 exchangeRate);\n\n  constructor (string memory _name, string memory _symbol, uint256 _exchangeRate) ERC20(_name, _symbol) {\n    exchangeRate = _exchangeRate;\n  }\n  \n  function purchaseTokens() public payable {\n    require(msg.value >= 1, 'must be at least 1 wei');\n    _purchaseCount.increment();\n    _mint(msg.sender, msg.value * exchangeRate);\n    emit Purchase(_purchaseCount.current(), msg.value * exchangeRate, exchangeRate);\n  }\n}",
  "sourcePath": "/Users/andrewmlevy/Documents/blockchain/4_portfolio_projects/swap-eth-custom-token/src/contracts/Token.sol",
  "compiler": {
    "name": "solc",
    "version": "0.8.0+commit.c7dfd78e.Emscripten.clang"
  },
  "schemaVersion": "3.4.3",
  "updatedAt": "2022-01-04T18:11:10.342Z",
  "networkType": "ethereum",
  "devdoc": {
    "kind": "dev",
    "methods": {
      "allowance(address,address)": {
        "details": "See {IERC20-allowance}."
      },
      "approve(address,uint256)": {
        "details": "See {IERC20-approve}. Requirements: - `spender` cannot be the zero address."
      },
      "balanceOf(address)": {
        "details": "See {IERC20-balanceOf}."
      },
      "decimals()": {
        "details": "Returns the number of decimals used to get its user representation. For example, if `decimals` equals `2`, a balance of `505` tokens should be displayed to a user as `5.05` (`505 / 10 ** 2`). Tokens usually opt for a value of 18, imitating the relationship between Ether and Wei. This is the value {ERC20} uses, unless this function is overridden; NOTE: This information is only used for _display_ purposes: it in no way affects any of the arithmetic of the contract, including {IERC20-balanceOf} and {IERC20-transfer}."
      },
      "decreaseAllowance(address,uint256)": {
        "details": "Atomically decreases the allowance granted to `spender` by the caller. This is an alternative to {approve} that can be used as a mitigation for problems described in {IERC20-approve}. Emits an {Approval} event indicating the updated allowance. Requirements: - `spender` cannot be the zero address. - `spender` must have allowance for the caller of at least `subtractedValue`."
      },
      "increaseAllowance(address,uint256)": {
        "details": "Atomically increases the allowance granted to `spender` by the caller. This is an alternative to {approve} that can be used as a mitigation for problems described in {IERC20-approve}. Emits an {Approval} event indicating the updated allowance. Requirements: - `spender` cannot be the zero address."
      },
      "name()": {
        "details": "Returns the name of the token."
      },
      "symbol()": {
        "details": "Returns the symbol of the token, usually a shorter version of the name."
      },
      "totalSupply()": {
        "details": "See {IERC20-totalSupply}."
      },
      "transfer(address,uint256)": {
        "details": "See {IERC20-transfer}. Requirements: - `recipient` cannot be the zero address. - the caller must have a balance of at least `amount`."
      },
      "transferFrom(address,address,uint256)": {
        "details": "See {IERC20-transferFrom}. Emits an {Approval} event indicating the updated allowance. This is not required by the EIP. See the note at the beginning of {ERC20}. Requirements: - `sender` and `recipient` cannot be the zero address. - `sender` must have a balance of at least `amount`. - the caller must have allowance for ``sender``'s tokens of at least `amount`."
      }
    },
    "version": 1
  },
  "userdoc": {
    "kind": "user",
    "methods": {},
    "version": 1
  }
}